:100000000C9463000C948B000C948B000C948B006C
:100010000C948B000C948B000C948B000C94650753
:100020000C948B000C948B000C948B000C94630844
:100030000C948B000C948B000C948B000C948B0014
:100040000C9419080C948B000C94E7070C94C107CE
:100050000C948B000C948B000C948B000C948B00F4
:100060000C948B000C948B000000000024002700EF
:100070002A000000000023002600290000000008DC
:10008000000201000003040700000000000000005F
:10009000010204081020408001020408102001021F
:1000A0000408102000000000250028002B00040494
:1000B0000404040404040202020202020303030310
:1000C000030302001F0911241FBECFEFD8E0DEBFDB
:1000D000CDBF12E0A0E0B1E0E6ECF8E102C005908F
:1000E0000D92AE30B107D9F722E0AEE0B2E001C028
:1000F0001D92A33FB207E1F710E0C3E6D0E004C0D1
:100100002197FE010E945B0CC236D107C9F70E94FD
:100110007C090C94610C0C940000AF92BF92CF92BA
:10012000DF92EF92FF920F931F93CF93DF936C01B7
:100130007B018B01040F151FEB015E01AE18BF0898
:10014000C017D10759F06991D601ED91FC9101904A
:10015000F081E02DC6010995892B79F7C501DF9162
:10016000CF911F910F91FF90EF90DF90CF90BF90B4
:10017000AF900895FC01538D448D252F30E0842FDE
:1001800090E0821B930B541710F0CF9608950197BF
:100190000895FC01918D828D981761F0A28DAE0FAC
:1001A000BF2FB11D5D968C91928D9F5F9F73928F33
:1001B00090E008958FEF9FEF0895FC01918D828D5F
:1001C000981731F0828DE80FF11D858D90E008952C
:1001D0008FEF9FEF0895FC01918D228D892F90E084
:1001E000805C9F4F821B91098F73992708958EE23F
:1001F00092E00E94EB0021E0892B09F420E0822F9D
:10020000089580E090E0892B29F00E94F700811189
:100210000C9400000895FC01A48DA80FB92FB11D06
:10022000A35ABF4F2C91848D90E001968F7399272C
:10023000848FA689B7892C93A089B1898C9183700A
:1002400080648C93938D848D981306C00288F38903
:10025000E02D80818F7D80830895EF92FF920F9330
:100260001F93CF93DF93EC0181E0888F9B8D8C8D62
:1002700098131AC0E889F989808185FF15C09FB756
:10028000F894EE89FF896083E889F9898081837019
:10029000806480839FBF81E090E0DF91CF911F91C8
:1002A0000F91FF90EF900895F62E0B8D10E00F5FE9
:1002B0001F4F0F731127E02E8C8D8E110CC00FB6BF
:1002C00007FCFACFE889F989808185FFF5CFCE0157
:1002D0000E940B01F1CFEB8DEC0FFD2FF11DE35AC6
:1002E000FF4FF0829FB7F8940B8FEA89FB898081DA
:1002F0008062CFCFCF93DF93EC01888D8823B9F054
:10030000AA89BB89E889F9898C9185FD03C0808120
:1003100086FD0DC00FB607FCF7CF8C9185FFF2CF9D
:10032000808185FFEDCFCE010E940B01E9CFDF91E7
:10033000CF910895833081F028F4813099F0823094
:10034000A9F008958730A9F08830C9F08430B1F45D
:10035000809180008F7D03C0809180008F77809393
:100360008000089584B58F7784BD089584B58F7D0E
:10037000FBCF8091B0008F778093B000089580917B
:10038000B0008F7DF9CFCF93DF93282F30E0F901B4
:10039000E458FF4F8491F901E057FF4FD491F901E0
:1003A000E255FF4FC491CC23A1F081110E949A0124
:1003B000EC2FF0E0EE0FFF1FEE58FF4FA591B49128
:1003C000EC91ED2381E090E009F480E0DF91CF91A2
:1003D000089580E090E0FACF1F93CF93DF93282F0A
:1003E00030E0F901E458FF4F8491F901E057FF4FE5
:1003F000D491F901E255FF4FC491CC23A9F0162FF7
:1004000081110E949A01EC2FF0E0EE0FFF1FEC55D6
:10041000FF4FA591B4918FB7F894EC91111108C0DA
:10042000D095DE23DC938FBFDF91CF911F9108958C
:10043000DE2BF8CF9091000189130BC0E2ECF0E0C5
:10044000E4919FEF90930001E13049F028F0E23011
:1004500061F060E00C94EC0110926E00FACF909184
:100460006F009D7F90936F00F4CF909170009D7FFF
:100470009093700091E09093B0009091B100987FBC
:1004800094609093B1001092B300E3CFCF93DF93C9
:1004900090E0FC01E057FF4F249182559F4FFC01F3
:1004A00084918823D1F090E0880F991FFC01E859CE
:1004B000FF4FA591B491FC01EC55FF4FC591D4912C
:1004C000623071F49FB7F8943C91822F809583231A
:1004D0008C93E8812E2B28839FBFDF91CF910895C5
:1004E0008FB7F894EC912E2B2C938FBFF6CF4F92B1
:1004F0005F926F927F928F929F92AF92BF92CF92B4
:10050000DF92EF92FF920F931F93CF938C014A01DA
:100510005B0180910001883099F08F3F09F46CC035
:10052000CF911F910F91FF90EF90DF90CF90BF90F0
:10053000AF909F908F907F906F905F904F900895B5
:10054000E2ECF0E0C491C7FDEBCF61E088E00E94EF
:100550004602CC2319F0C23009F04BC12801712C9E
:10056000612C60E472E48FE090E0A30198010E94A6
:10057000F40B69017A0181E0C81AD108E108F10899
:10058000C23009F0A8C09FEFC916D104E104F104FC
:1005900009F00CF46AC160E970ED83E090E0A3011A
:1005A00098010E94F40B69017A0181E0C81AD10810
:1005B000E108F10883E09FEFC916D104E104F104DA
:1005C00009F00CF40FC168E478EE81E090E0A3013B
:1005D00098010E94F40B69017A0191E0C91AD108CF
:1005E000E108F1088FEFC816D104E104F10411F01D
:1005F0000CF0CCC084E0F6C088E080930001E2EC0F
:10060000F0E0C491CF3F09F48BCFC13021F150F01D
:10061000C23009F43EC0C7FD83CF61E088E00E948C
:10062000460299CF14BC15BC84B5826084BD85B5E3
:10063000816085BDE6EBF0E0E491F0E0EE0FFF1F96
:10064000EC55FF4F85919491E8E9F0E0E491E09357
:100650002102C0E07ACF1092800010928100809138
:100660008100886080938100809181008160809307
:100670008100E6EBF0E0E491F0E0EE0FFF1FEC55B7
:10068000FF4F85919491E8E9F0E0E491E093200236
:100690005CCF1092B0001092B1008091B0008260E7
:1006A0008093B0008091B10081608093B100E6EB4F
:1006B000F0E0E491F0E0EE0FFF1FEC55FF4F859165
:1006C000949190931F0280931E02E8E9F0E0E49178
:1006D000E0931D023ACF8FEFC816D104E104F10474
:1006E00009F00CF47BC068E478EE81E090E0A301AF
:1006F00098010E94F40B69017A0191E0C91AD108AE
:10070000E108F10884E0C11151C083E09FEFC916F0
:10071000D104E104F10489F084F062E17AE780E039
:1007200090E0A30192010E94F40B69017A0191E02B
:10073000C91AD108E108F10884E095B5987F892BA2
:1007400085BDC0E0D801AA0FBB1FA50194010E947E
:10075000130C28EE33E040E050E00E941E0CC13044
:1007600009F461C0C23009F470C0C111D9CEC7BC50
:1007700020932A0230932B0240932C0250932D0297
:1007800080916E00826080936E00CACE64E274EF46
:1007900080E090E0A30192010E94F40B69017A01CC
:1007A00081E0C81AD108E108F10885E09FEFC91679
:1007B000D104E104F10499F090F062E17AE780E07D
:1007C00090E0A30192010E94F40B69017A0181E09B
:1007D000C81AD108E108F10886E004C082E0CC2301
:1007E00009F4ABCF9091B100987F892B8093B10031
:1007F000A9CF980150E040E060E072E18AE790E024
:100800000E94F40B69017A0181E0C81AD108E1085D
:10081000F108C13009F096CF80918100887F816016
:10082000809381008FCFD0928900C092880020935E
:100830002602309327024093280250932902809188
:100840006F00826080936F006BCEC092B3002093E4
:100850002202309323024093240250932502809178
:1008600070008260809370005BCE82E0BBCF3FB7A8
:10087000F8948091100290911102A0911202B0910F
:10088000130226B5A89B05C02F3F19F00196A11DA4
:10089000B11D3FBFBA2FA92F982F8827BC01CD01CA
:1008A000620F711D811D911D42E0660F771F881F29
:1008B000991F4A95D1F708958F929F92AF92BF9258
:1008C000CF92DF92EF92FF926B017C010E9437047E
:1008D0004B015C01C114D104E104F104B9F00E94A0
:1008E0003704681979098A099B09683E73408105B4
:1008F000910580F321E0C21AD108E108F10888EEE1
:10090000880E83E0981EA11CB11CE4CFFF90EF90ED
:10091000DF90CF90BF90AF909F908F9008958130DF
:1009200059F0823061F0833069F0843071F08530A5
:1009300079F0863081F0089581E090E0089584E6B2
:1009400090E0089588EC90E008958CE291E008959D
:1009500080E991E0089584EF91E0089510921C02DF
:100960008EE00E94C301019721F410921B021092A5
:100970001A0280E10E94C301019721F4109219022A
:10098000109218028FE00E94C301892B51F482E07B
:1009900080931C0281E090911C02911101C080E0C3
:1009A00008958EE00E94C301892B59F480911A02A8
:1009B00090911B02019690931B0280931A0281E092
:1009C000E7CF80E10E94C301892B59F4809118027E
:1009D000909119020196909319028093180283E076
:1009E000D7CF83E10E94C301892B11F484E0D0CFDB
:1009F00082E10E94C301892B11F485E0C9CF81E116
:100A00000E94C301892B31F686E0C2CFCF93C82F55
:100A100061E00E94EC0164E670E080E090E00E94FA
:100A20005C0460E08C2FCF910C94EC01CF93DF93AA
:100A3000D82F68EE73E080E090E00E945C04C0E094
:100A4000CD17B1F061E08DE00E94EC0164E670E04A
:100A500080E090E00E945C0460E08DE00E94EC0188
:100A600064EF71E080E090E00E945C04CF5FE8CF2B
:100A7000DF91CF9108950F931F93CF93DF9361E0A0
:100A800087E00E94EC018091F0028C3008F051C0A8
:100A900061E089E00E9446028091F002282F30E058
:100AA000F901EE0FFF1FE20FF31FE553FD4F908199
:100AB000907C996090831092F1021092F2022CE0E7
:100AC000622F0E944F0C829FB001112430E020E081
:100AD000AB01420F531FFA01EE0FFF1FE40FF51F8A
:100AE000E553FD4F908196FD16C02F5F3F4F2C3090
:100AF000310571F781110FC01092800082E0809360
:100B000081001092850010928400B19A80916F004C
:100B1000826080936F00E091F0028E2F90E0FC01E4
:100B2000EE0FFF1FE80FF91FE553FD4F8081806432
:100B30008083E091F002EC30E0F42091F20288E54D
:100B400092E0821B910927FD939533E0880F991F4E
:100B50003A95E1F704974FB7F8942E2F30E0F9015A
:100B6000EE0FFF1FE20FF31FE553FD4F92838183CA
:100B70004FBF04E010E061E08DE00E94EC0160E016
:100B80008AE00E94EC01C6E9D0E04EE150E060E06E
:100B900070E0CE010E9477026AE070E080E090E0B1
:100BA0000E945C04CA56DF4FC23D8FE0D80769F748
:100BB00060E08DE00E94EC0161E08AE00E94EC01BF
:100BC000C0EADFE04EE150E060E070E0CE010E945C
:100BD00077026AE070E080E090E00E945C04C65911
:100BE000D109C436D10571F70150110921F688E009
:100BF0000E941A0260E08DE00E94EC0160E08AE051
:100C00000E94EC01E091F0028E2F90E0FC01EE0FCB
:100C1000FF1FE80FF91FE553FD4F80818F7B808315
:100C200060E087E0DF91CF911F910F910C94EC0170
:100C3000CF93DF9361E08DE00E94EC0160E08AE0F9
:100C40000E94EC01C0EADFE04EE150E060E070E0BD
:100C5000CE010E94770264E170E080E090E00E94A3
:100C60005C04C659D109C436D10571F788E00E94E9
:100C70001A0260E08DE0DF91CF910C94EC01CF93EC
:100C8000DF9361E08AE00E94EC0160E08DE00E9469
:100C9000EC01C6E9D0E048E250E060E070E0CE014F
:100CA0000E9477026EE170E080E090E00E945C04B8
:100CB000CA56DF4FC23D8FE0D80769F788E00E942F
:100CC0001A0260E08AE0DF91CF910C94EC01FC0104
:100CD00001900020E9F73197AF01481B590BBC0187
:100CE0008EE292E00C948D008F929F92AF92BF9211
:100CF0000F931F93CF93DF93CDB7DEB7A1970FB6B6
:100D0000F894DEBF0FBECDBF19A2423008F44AE00E
:100D10008E010F5D1F4F842E912CB12CA12CA501AB
:100D200094010E941E0CE62FB901CA01EA30F4F4C6
:100D3000E05DD801EE938D01232B242B252B79F731
:100D400090E080E0109719F0CD010E946706A1960F
:100D50000FB6F894DEBF0FBECDBFDF91CF911F91CC
:100D60000F91BF90AF909F908F900895E95CE1CF75
:100D7000CF93DF930E946706EC0187E291E00E9427
:100D800067068C0F9D1FDF91CF910895CF93DF935E
:100D9000682F70E090E080E04AE00E947406EC0169
:100DA00087E291E00E9467068C0F9D1FDF91CF9133
:100DB0000895CF92DF92EF92FF92CF93DF936C0171
:100DC000990FEE08FF08F7FE1FC06DE28EE292E079
:100DD0000E942D01EC0166277727CB016C197D0954
:100DE0008E099F094AE00E947406C80FD91F87E246
:100DF00091E00E9467068C0F9D1FDF91CF91FF90BD
:100E0000EF90DF90CF9008954AE0C701B6010E94AD
:100E10007406EC01ECCF0F931F93CF93DF93062F53
:100E2000142FC22F0E948F04D0E0CC0FDD1FC80FFB
:100E3000D91F602FCE010E94E60B612FCE010196D3
:100E4000DF91CF911F910F910C94E60BEF92FF92DF
:100E50001F93CF93DF938AE291E00E94B8068DE062
:100E60000E9406058AE00E9406058DE00E940605A4
:100E70008AE00E9406058DE00E9406058AE00E9435
:100E8000060561E090E080E00E94E60B81E0E82E3C
:100E900081E0F82ED0E0C0E0F70111917F012196AA
:100EA000612FCE010E94E60B133619F0C431D10533
:100EB00099F70E94AE048111FCCFDF91CF911F9171
:100EC000FF90EF9008950C94DE0B1F920F920FB6D7
:100ED0000F9211242F933F934F935F936F937F93C0
:100EE0008F939F93AF93BF93EF93FF9380912202D1
:100EF00090912302A0912402B0912502892B8A2B84
:100F00008B2BD1F190911D02E0911E02F0911F02F6
:100F10008081892780838091220290912302A09171
:100F20002402B0912502181619061A061B069CF415
:100F30008091220290912302A0912402B091250277
:100F40000197A109B1098093220290932302A093F3
:100F50002402B0932502FF91EF91BF91AF919F9131
:100F60008F917F916F915F914F913F912F910F9052
:100F70000FBE0F901F901895809100010E941A02D9
:100F8000EACF1F920F920FB60F9211242F933F9327
:100F90004F935F936F937F938F939F93AF93BF9381
:100FA000EF93FF938EE292E00E940B01FF91EF918D
:100FB000BF91AF919F918F917F916F915F914F9171
:100FC0003F912F910F900FBE0F901F9018951F9279
:100FD0000F920FB60F9211242F938F939F93EF933D
:100FE000FF93E0913E02F0913F028081E091440244
:100FF000F091450282FD1BC09081809147028F5F76
:101000008F7320914802821741F0E0914702F0E08F
:10101000E25DFD4F958F80934702FF91EF919F9185
:101020008F912F910F900FBE0F901F901895808178
:10103000F4CF1F920F920FB60F9211242F933F936C
:101040008F939F93AF93BF93809114029091150259
:10105000A0911602B091170230910F0223E0230FE6
:101060002D3758F50196A11DB11D20930F028093D5
:10107000140290931502A0931602B0931702809168
:10108000100290911102A0911202B09113020196E8
:10109000A11DB11D8093100290931102A093120222
:1010A000B0931302BF91AF919F918F913F912F9178
:1010B0000F900FBE0F901F90189526E8230F0296F1
:1010C000A11DB11DD2CF1F920F920FB60F92112406
:1010D0002F933F934F935F936F937F938F939F9340
:1010E000AF93BF93CF93DF93EF93FF9380910E0263
:1010F000C091EF02D0E087FF24C0109285001092CB
:10110000840080910E028F5F80930E0280910E0208
:10111000082E000C990B8C179D0724F480910E0269
:101120008C30C4F1809184009091850004968034C5
:101130009C4908F47AC080918400909185000496BF
:1011400076C080910E02082E000C990B8C179D071B
:10115000C4F6E0910E028E2FEE0F990BFC01EE0FFC
:10116000FF1FE80FF91FE553FD4F808186FFC9CFB0
:10117000E0910E028E2FEE0F990BFC01EE0FFF1F78
:10118000E80FF91FE553FD4F808160E08F730E94E7
:10119000EC01B7CF2091840030918500E0910E02E0
:1011A0008E2FEE0F990BFC01EE0FFF1FE80FF91FBA
:1011B000E553FD4F81819281820F931F90938900A7
:1011C00080938800E0910E028E2FEE0F990BFC01A8
:1011D000EE0FFF1FE80FF91FE553FD4F808186FFDB
:1011E00011C0E0910E028E2FEE0F990BFC01EE0F55
:1011F000FF1FE80FF91FE553FD4F808161E08F73FA
:101200000E94EC01FF91EF91DF91CF91BF91AF91DF
:101210009F918F917F916F915F914F913F912F910E
:101220000F900FBE0F901F90189580E49CE990934B
:101230008900809388008FEF80930E02E3CF109295
:1012400031021092300288EE93E0A0E0B0E080938B
:10125000320290933302A0933402B093350289E1B5
:1012600091E090932F0280932E0285EC90E0909372
:101270003B0280933A0284EC90E090933D0280938D
:101280003C0280EC90E090933F0280933E0281EC20
:1012900090E0909341028093400282EC90E0909322
:1012A00043028093420286EC90E090934502809343
:1012B0004402109247021092480210924902109282
:1012C0004A028091EF028C3098F491E0980F90934D
:1012D000EF028093F00290E0FC01EE0FFF1FE80F99
:1012E000F91FE553FD4F88EB9BE0928381830895BE
:1012F0008FEF8093F0020895789484B5826084BD66
:1013000084B5816084BD85B5826085BD85B5816009
:1013100085BD80916E00816080936E001092810087
:101320008091810082608093810080918100816042
:101330008093810080918000816080938000809103
:10134000B10084608093B1008091B000816080938F
:10135000B00080917A00846080937A0080917A0056
:10136000826080937A0080917A00816080937A0015
:1013700080917A00806880937A001092C100E09199
:101380003E02F0913F0282E08083E0913A02F091C8
:101390003B021082E0913C02F0913D028FEC808391
:1013A00010924602E0914202F091430286E080836F
:1013B000E0914002F0914102808180618083E09160
:1013C0004002F0914102808188608083E091400278
:1013D000F0914102808180688083E0914002F09129
:1013E000410280818F7D80838AE391E00E94B8066C
:1013F00061E084E00E94460260E084E00E94EC012B
:1014000061E08DE00E94460260E08DE00E94EC0108
:1014100061E08AE00E94460260E08AE00E94EC01FE
:1014200062E08EE00E94460262E08FE00E94460287
:1014300062E080E10E94460262E083E10E9446028F
:1014400062E082E10E94460262E081E10E9446027F
:1014500061E087E00E94460260E087E00E94EC01C4
:101460008FEF93E00E9463078F3F39F40E942607B5
:1014700060E08FEF93E00E94E60BC3E0D0E00E94B3
:10148000AE04882389F080911C02813069F48DE0DC
:101490000E94060568EE73E080E090E00E945C0424
:1014A000219769F70E94260790E080E00E94630779
:1014B000C82F89E591E00E9467068C2F0E94C6061E
:1014C0008C2F0E94160594E6B92E20E0822E20E093
:1014D000922E0E94AE04882309F49FC080911C02C2
:1014E000823009F4DBC0833009F43AC1813009F05D
:1014F0005CC180911A0290911B02893C91050CF409
:101500008CC08DE00E9406050E94AE048111FCCFC4
:1015100090E080E00E946307D82F88E691E00E9467
:1015200067068D2F0E94C6068FB7F894409014026C
:101530005090150260901602709017028FBFC0E0A5
:1015400061E08DE00E94EC016AE070E080E090E0F4
:101550000E945C0460E08DE00E94EC0164E670E0B3
:1015600080E090E00E945C042FB7F8946091140230
:101570007091150280911602909117022FBF641985
:1015800075098609970924E630E040E050E00E94A2
:10159000F40B69017A018FEFC816D104E104F1045C
:1015A00029F024F0C12CD12C7601CA9489E791E06E
:1015B0000E9467068C2D0E94C6060E94AE04A82ECB
:1015C000882309F4BDCF61E08DE00E94EC01809199
:1015D0001C028430A1F585E891E00E94B8062C2F0A
:1015E00041E06C2D8D2F0E940B07CF5F0E943F06BC
:1015F0000E94AE048111FCCF8FB7F8944090140282
:101600005090150260901602709017028FBF60E034
:101610008DE00E94EC01A11093CF6AE070E080E0C1
:1016200090E00E945C048114910409F452CF0E945E
:10163000F700882309F44DCF0E9400004ACF85307F
:1016400071F489E891E00E94B8062C2F42E06C2DDD
:101650008D2F0E940B07CF5F0E941806C9CF8630DE
:1016600071F48CE891E00E94B8062C2F43E06C2DB9
:101670008D2F0E940B07CF5F0E943B05B9CF8130B1
:1016800009F0B6CF82E991E00E94B8062C2F43E61C
:101690006C2D8D2F0E940B07A12CAACF90E080E02B
:1016A0000E946307C82F86E991E00E9467068C2F8D
:1016B0000E94C6068C2F0E948F047C0185EA91E06F
:1016C0000E946706C7010E94D906E70183E6E80E7B
:1016D000F11CEC16FD060CF4A0CFCE010E946307AE
:1016E000D82ECE0101960E946307182F8AEB91E055
:1016F0000E9467068D2D90E00E94D906DB9CB00108
:101700001124072E000C880B990B0E945C041230E8
:10171000C9F038F4113071F088EC91E00E94B806FD
:101720000FC01330B1F01336B9F782E991E00E948F
:10173000B80673CF85E891E00E94B8060E943F0684
:101740002296C7CF89E891E00E94B8060E94180649
:10175000F7CF8CE891E00E94B8060E943B05F0CFDD
:101760008091180290911902893C91050CF455CF93
:101770008CED91E00E94B80690E080E00E94630743
:10178000C1E0C80FC63009F4C1E082EF91E00E94C9
:1017900067068C2F0E94C6068C2F0E9416056C2FA0
:1017A00090E080E00E94E60B38CF8AEF91E00E9443
:1017B000670680911C020E94C6062FCFF999FECFC2
:1017C00092BD81BDF89A992780B50895262FF99981
:1017D000FECF1FBA92BD81BD20BD0FB6F894FA9A14
:1017E000F99A0FBE01960895052E97FB1EF40094FA
:1017F0000E940B0C57FD07D00E941E0C07FC03D063
:101800004EF40C940B0C50954095309521953F4F1C
:101810004F4F5F4F089590958095709561957F4FDC
:101820008F4F9F4F08950E94400CA59F900DB49F2D
:10183000900DA49F800D911D11240895A1E21A2EF0
:10184000AA1BBB1BFD010DC0AA1FBB1FEE1FFF1F64
:10185000A217B307E407F50720F0A21BB30BE40BB4
:10186000F50B661F771F881F991F1A9469F76095FB
:101870007095809590959B01AC01BD01CF010895B5
:10188000A29FB001B39FC001A39F700D811D1124C1
:10189000911DB29F700D811D1124911D0895991BFA
:1018A00079E004C0991F961708F0961B881F7A9557
:1018B000C9F780950895EE0FFF1F0590F491E02D74
:0618C0000994F894FFCF2B
:1018C600FF380133010201480243022B02370101AE
:1018D600010F030063000000002D018D00BA007A9D
:1018E60001EB00C900DD000D0A00466163746F72EA
:1018F600792052657365742121004F70656E536EB1
:10190600616B65204669726D7761726520566572F6
:1019160073696F6E20312E300043757272656E7476
:1019260020747261636B20005265636F7264696E26
:101936006720747261636B20006576656E745F6400
:10194600656C617900594553004E4F00534E414B2B
:101956004500454E4400506C6179696E672074728B
:1019660061636B200073746172745F6D656D5F6C8B
:101976006F636174696F6E3A20006576656E745F99
:1019860064656C61793A2000496E76616C69642001
:101996006576656E7420747970652100496E637290
:1019A600656D656E74696E6720747261636B2E2E49
:1019B6002E00747261636B3A2000496E76616C6921
:0E19C600642075736572496E7075743A200066
:107E0000112484B714BE81FFF0D085E080938100F7
:107E100082E08093C00088E18093C10086E0809377
:107E2000C20080E18093C4008EE0C9D0259A86E02C
:107E300020E33CEF91E0309385002093840096BBD3
:107E4000B09BFECF1D9AA8958150A9F7CC24DD24C4
:107E500088248394B5E0AB2EA1E19A2EF3E0BF2EE7
:107E6000A2D0813461F49FD0082FAFD0023811F036
:107E7000013811F484E001C083E08DD089C08234E0
:107E800011F484E103C0853419F485E0A6D080C0E4
:107E9000853579F488D0E82EFF2485D0082F10E0AE
:107EA000102F00270E291F29000F111F8ED06801E7
:107EB0006FC0863521F484E090D080E0DECF843638
:107EC00009F040C070D06FD0082F6DD080E0C81688
:107ED00080E7D80618F4F601B7BEE895C0E0D1E017
:107EE00062D089930C17E1F7F0E0CF16F0E7DF06D8
:107EF00018F0F601B7BEE89568D007B600FCFDCFD4
:107F0000A601A0E0B1E02C9130E011968C91119780
:107F100090E0982F8827822B932B1296FA010C0160
:107F200087BEE89511244E5F5F4FF1E0A038BF0790
:107F300051F7F601A7BEE89507B600FCFDCF97BE46
:107F4000E89526C08437B1F42ED02DD0F82E2BD052
:107F50003CD0F601EF2C8F010F5F1F4F84911BD097
:107F6000EA94F801C1F70894C11CD11CFA94CF0C13
:107F7000D11C0EC0853739F428D08EE10CD085E9AC
:107F80000AD08FE07ACF813511F488E018D01DD067
:107F900080E101D065CF982F8091C00085FFFCCF94
:107FA0009093C60008958091C00087FFFCCF809118
:107FB000C00084FD01C0A8958091C6000895E0E648
:107FC000F0E098E1908380830895EDDF803219F02E
:107FD00088E0F5DFFFCF84E1DECF1F93182FE3DFCA
:107FE0001150E9F7F2DF1F91089580E0E8DFEE27F6
:047FF000FF270994CA
:027FFE00040479
:0400000300007E007B
:00000001FF
