:020000040000FA
:100000000C9463000C948B000C948B000C948B006C
:100010000C948B000C948B000C948B000C94AD0A08
:100020000C948B000C948B000C948B000C94AB0BF9
:100030000C948B000C948B000C948B000C948B0014
:100040000C94610B0C948B000C942F0B0C94090BEB
:100050000C948B000C948B000C948B000C948B00F4
:100060000C948B000C948B000000000024002700EF
:100070002A000000000023002600290000000008DC
:10008000000201000003040700000000000000005F
:10009000010204081020408001020408102001021F
:1000A0000408102000000000250028002B00040494
:1000B0000404040404040202020202020303030310
:1000C00003030200670C11241FBECFEFD8E0DEBF90
:1000D000CDBF13E0A0E0B1E0E8E1F6E202C0059098
:1000E0000D92A633B107D9F724E0A6E3B3E001C02F
:1000F0001D92AD31B207E1F710E0C3E6D0E004C0D5
:100100002197FE010E940413C236D107C9F70E944D
:10011000C40C0C940A130C9400008F929F92AF921F
:10012000BF92FF920F931F93CF93DF93F0901A0427
:100130002BE02F1508F44CC020911C0408E512E0B8
:10014000021B110927FD1395000F111F000F111F2E
:1001500020911B04C8E8D0E0C21BD10927FDD3952C
:10016000CC0FDD1FCC0FDD1F4E010D2E000CAA0899
:10017000BB089801012E000C440B550B28193909B6
:100180004A095B09DC010E94661124EB30E040E083
:1001900050E00E943C11820E931EA41EB51E8C16C8
:1001A0009D062CF0E801801691060CF4E4012297DC
:1001B000CC0FDD1F2FB7F8948F2D90E0FC01EE0FD0
:1001C000FF1FE80FF91FEB50FC4FD283C1832FBFF5
:1001D000DF91CF911F910F91FF90BF90AF909F90B3
:1001E0008F900895AF92BF92CF92DF92EF92FF92DD
:1001F0000F931F93CF93DF936C017B018B01040F4F
:10020000151FEB015E01AE18BF08C017D10759F0EA
:100210006991D601ED91FC910190F081E02DC6012C
:100220000995892B79F7C501DF91CF911F910F9126
:10023000FF90EF90DF90CF90BF90AF900895FC01BA
:10024000538D448D252F30E0842F90E0821B930B3B
:10025000541710F0CF96089501970895FC01918DE1
:10026000828D981761F0A28DAE0FBF2FB11D5D96E4
:100270008C91928D9F5F9F73928F90E008958FEF86
:100280009FEF0895FC01918D828D981731F0828D3A
:10029000E80FF11D858D90E008958FEF9FEF089591
:1002A000FC01918D228D892F90E0805C9F4F821BF5
:1002B00091098F739927089588E593E00E94500172
:1002C00021E0892B09F420E0822F089580E090E05E
:1002D000892B29F00E945C0181110C940000089583
:1002E000FC01A48DA80FB92FB11DA35ABF4F2C91AB
:1002F000848D90E001968F739927848FA689B789A2
:100300002C93A089B1898C91837080648C93938D98
:10031000848D981306C00288F389E02D80818F7D3B
:1003200080830895EF92FF920F931F93CF93DF93F3
:10033000EC0181E0888F9B8D8C8D98131AC0E88921
:10034000F989808185FF15C09FB7F894EE89FF89F0
:100350006083E889F98980818370806480839FBF8E
:1003600081E090E0DF91CF911F910F91FF90EF908E
:100370000895F62E0B8D10E00F5F1F4F0F7311279E
:10038000E02E8C8D8E110CC00FB607FCFACFE889D9
:10039000F989808185FFF5CFCE010E947001F1CFF0
:1003A000EB8DEC0FFD2FF11DE35AFF4FF0829FB74D
:1003B000F8940B8FEA89FB8980818062CFCFCF933D
:1003C000DF93EC01888D8823B9F0AA89BB89E8897D
:1003D000F9898C9185FD03C0808186FD0DC00FB623
:1003E00007FCF7CF8C9185FFF2CF808185FFEDCFA1
:1003F000CE010E947001E9CFDF91CF910895833043
:1004000081F028F4813099F08230A9F00895873086
:10041000A9F08830C9F08430B1F4809180008F7DDC
:1004200003C0809180008F7780938000089584B509
:100430008F7784BD089584B58F7DFBCF8091B00008
:100440008F778093B00008958091B0008F7DF9CFB1
:10045000CF93DF93282F30E0F901E458FF4F8491C8
:10046000F901E057FF4FD491F901E255FF4FC491D4
:10047000CC23A1F081110E94FF01EC2FF0E0EE0FE0
:10048000FF1FEE58FF4FA591B491EC91ED2381E051
:1004900090E009F480E0DF91CF91089580E090E052
:1004A000FACF1F93CF93DF93282F30E0F901E45860
:1004B000FF4F8491F901E057FF4FD491F901E255C4
:1004C000FF4FC491CC23A9F0162F81110E94FF0188
:1004D000EC2FF0E0EE0FFF1FEC55FF4FA591B4910C
:1004E0008FB7F894EC91111108C0D095DE23DC93FE
:1004F0008FBFDF91CF911F910895DE2BF8CF8F92A0
:100500009F92AF92BF92CF92DF92EF92FF92CF93E2
:10051000DF939C012253310927363A4338F5EC0129
:10052000CC0FDD1FCC0FDD1F2597880F991F6C01A5
:10053000F12CE12C812C912C540161E088E00E9487
:100540005102CE010197F1F760E088E00E9451026C
:10055000CE010197F1F78C0C9D1CAE1CBF1C80E4F2
:1005600088168FE19806A104B1043CF3DF91CF9186
:10057000FF90EF90DF90CF90BF90AF909F908F90C3
:1005800008959091000189130BC0E2ECF0E0E49132
:100590009FEF90930001E13049F028F0E23061F0E4
:1005A00060E00C94510210926E00FACF90916F00AF
:1005B0009D7F90936F00F4CF909170009D7F9093FA
:1005C000700091E09093B0009091B100987F94609A
:1005D0009093B1001092B300E3CFCF93DF9390E0FC
:1005E000FC01E057FF4F249182559F4FFC018491FD
:1005F0008823D1F090E0880F991FFC01E859FF4F44
:10060000A591B491FC01EC55FF4FC591D491623096
:1006100071F49FB7F8943C91822F809583238C933B
:10062000E8812E2B28839FBFDF91CF9108958FB74C
:10063000F894EC912E2B2C938FBFF6CF4F925F92B4
:100640006F927F928F929F92AF92BF92CF92DF92E2
:10065000EF92FF920F931F93CF93DF9300D000D0C0
:100660001F92CDB7DEB78C012A013B0180910001BA
:100670008830C9F08F3F09F47FC00F900F900F9022
:100680000F900F90DF91CF911F910F91FF90EF90FE
:10069000DF90CF90BF90AF909F908F907F906F90A2
:1006A0005F904F900895E2ECF0E084918D8387FD98
:1006B000E4CF61E088E00E94ED028D81882321F083
:1006C0009D81923009F05CC14801B12CA12C60E001
:1006D00072E18AE790E0A50198010E943C1129830C
:1006E0003A834B835C8369017A0181E0C81AD1089F
:1006F000E108F1089FEFC916D104E104F10409F003
:100700000CF413C160E472E48FE090E0A50198015D
:100710000E943C1169017A0181E0C81AD108E10800
:10072000F1089D81923009F098C08FEFC816D1046E
:10073000E104F10409F00CF4DDC160E970ED83E03F
:1007400090E0A50198010E943C1169017A0191E0B5
:10075000C91AD108E108F1088FEFC816D104E104E5
:10076000F10411F00CF0A3C183E09091B100987FE7
:10077000892B8093B100E1C088E080930001E2EC16
:10078000F0E094919D839F3F09F477CF913029F158
:1007900058F0923009F43FC08D8187FD6ECF61E043
:1007A00088E00E94ED028CCF14BC15BC84B5826039
:1007B00084BD85B5816085BDE6EBF0E0E491F0E0B5
:1007C000EE0FFF1FEC55FF4F85919491E8E9F0E0A3
:1007D000E491E0934B031D826CCF10928000109245
:1007E00081008091810088608093810080918100E8
:1007F000816080938100E6EBF0E0E491F0E0EE0FA1
:10080000FF1FEC55FF4F85919491E8E9F0E0E491EA
:10081000E0934A034ECF1092B0001092B100809145
:10082000B00082608093B0008091B10081608093BD
:10083000B100E6EBF0E0E491F0E0EE0FFF1FEC55C5
:10084000FF4F859194919093490380934803E8E981
:10085000F0E0E491E09347032CCF9FEFC916D10459
:10086000E104F10409F00CF489C068E478EE81E059
:1008700090E0A50198010E943C1169017A0181E094
:10088000C81AD108E108F1089D81992309F428C10B
:100890009FEFC916D104E104F10409F00CF41EC164
:1008A00062E17AE780E090E0A50194010E943C11AA
:1008B00069017A0181E0C81AD108E108F1089D8137
:1008C000992309F4EBC08FEFC816D104E104F104B9
:1008D00011F008F0BFC086E048CF64E274EF80E01A
:1008E00090E0A50194010E943C1169017A0181E028
:1008F000C81AD108E108F10885E09FEFC916D104B4
:10090000E104F10409F008F430CF62E17AE780E015
:1009100090E0A50194010E943C1169017A0191E0E7
:10092000C91AD108E108F108CECF81E09D8191116B
:100930001CCF95B5987F892B85BD2FEF3FEFA9017F
:10094000411451046104710409F043C09D81913048
:1009500009F45EC0923009F46DC091118ECEC7BC0F
:1009600020935403309355034093560350935703F9
:1009700080916E00826080936E007FCE82E0D6CF41
:10098000B12CA12C60E072E18AE790E0A50198010A
:100990000E943C1169017A0181E0C81AD108E1087E
:1009A000F108C114D10491E0E906F10404F591E0E5
:1009B0008D81813011F680918100887F892B809311
:1009C00081002FEF3FEFA90141145104610471042C
:1009D000F9F0D801AA0FBB1FA30192010E945B117D
:1009E00028EE33E040E050E00E946E11AFCF68E4A3
:1009F00078EE81E090E0A50198010E943C11690128
:100A00007A0181E0C81AD108E108F10893E0D0CF5B
:100A1000D0928900C09288002093500330935103F4
:100A2000409352035093530380916F0082608093F0
:100A30006F0023CEC092B30020934C0330934D033C
:100A400040934E0350934F038091700082608093D7
:100A5000700013CEC980DA80EB80FC809AE0F594B8
:100A6000E794D794C7949A95D1F791E0C91AD10821
:100A7000E108F10887E079CEC980DA80EB80FC805C
:100A80008AE0F594E794D794C7948A95D1F791E0DA
:100A9000C91AD108E108F10885E04BCF8FEFC816DD
:100AA000D104E104F10409F038F784E042CF68E4AE
:100AB00078EE81E090E0A50198010E943C11690167
:100AC0007A0191E0C91AD108E108F1088FEFC81640
:100AD000D104E104F10411F00CF0FFCE84E045CE26
:100AE0008FEFC816D104E104F10411F00CF0D8CE58
:100AF00083E01FCF82E039CE80911A048C3008F059
:100B000051C061E089E00E94ED0280911A04282F13
:100B100030E0F901EE0FFF1FE20FF31FEB50FC4F27
:100B20009081907C9960908310921B0410921C0419
:100B30002CE0622F0E94D012829FB001112430E07D
:100B400020E0AB01420F531FFA01EE0FFF1FE40F2D
:100B5000F51FEB50FC4F908196FD16C02F5F3F4F65
:100B60002C30310571F781110FC01092800082E0A6
:100B7000809381001092850010928400B19A809138
:100B80006F00826080936F00E0911A048E2F90E0D6
:100B9000FC01EE0FFF1FE80FF91FEB50FC4F8081A7
:100BA0008064808380911A0408953FB7F8948091FF
:100BB000380390913903A0913A03B0913B0326B5D5
:100BC000A89B05C02F3F19F00196A11DB11D3FBF85
:100BD000BA2FA92F982F8827BC01CD01620F711D54
:100BE000811D911D42E0660F771F881F991F4A954E
:100BF000D1F708958F929F92AF92BF92CF92DF92DA
:100C0000EF92FF926B017C010E94D5054B015C01C4
:100C1000C114D104E104F104B9F00E94D5056819AA
:100C200079098A099B09683E73408105910580F323
:100C300021E0C21AD108E108F10888EE880E83E0AD
:100C4000981EA11CB11CE4CFFF90EF90DF90CF90D5
:100C5000BF90AF909F908F900895CF93DF9361E006
:100C600088E00E94ED0260E08DE00E94510261E0A8
:100C70008AE00E945102CAE8D2E0CE010E947F02BF
:100C80002397CC3082E0D807C1F760E08AE00E9469
:100C9000510268EC70E080E090E00E94FA0561E0AB
:100CA0008AE00E945102C0E2D3E0CE010E947F029E
:100CB0002397C33982E0D807C1F760E08AE00E9439
:100CC000510268EC70E080E090E00E94FA0561E07B
:100CD0008AE00E945102C4E8D3E0CE010E947F0264
:100CE0002397C83E82E0D807C1F760E08AE00E94FF
:100CF000510268EC70E080E090E00E94FA0561E04B
:100D00008AE00E945102CEEDD3E0CE010E947F0224
:100D10002397C13583E0D807C1F760E08AE0DF910F
:100D2000CF910C945102CF93DF9361E088E00E9451
:100D3000ED0260E08AE00E94510261E08DE00E94D5
:100D40005102C4EFD1E0CE010E947F022396CD3B39
:100D500082E0D807C1F760E08DE00E94510264EFA5
:100D600071E080E090E00E94FA0561E08DE00E9471
:100D70005102C8E5D2E0CE010E947F022396C13223
:100D800083E0D807C1F760E08DE00E94510264EF74
:100D900071E080E090E00E94FA0561E08DE00E9441
:100DA0005102CCEBD2E0CE010E947F022396C83BD9
:100DB00083E0D807C1F760E08DE0DF91CF910C941C
:100DC0005102813059F0823061F0833069F0843013
:100DD00071F0853079F0863081F0089581E090E0FF
:100DE000089584E690E0089588EC90E008958CE200
:100DF00091E0089580E991E0089584EF91E00895ED
:100E0000109246038EE00E942802019721F410926E
:100E100045031092440380E10E942802019721F4C7
:100E2000109243031092420381E10E94280201972D
:100E300021F410924103109240038FE00E94280297
:100E4000892B51F482E08093460381E09091460320
:100E5000911101C080E008958EE00E942802892B44
:100E600059F4809144039091450301969093450372
:100E70008093440381E0E7CF80E10E942802892B20
:100E800001F58091420390914303019690934303AF
:100E90008093420383E10E942802892B11F487E0AA
:100EA000D2CF82E10E942802892B11F488E0CBCFB7
:100EB00081E10E942802892B11F489E0C4CF83E0EC
:100EC000C2CF83E10E942802892B11F484E0BBCFBA
:100ED00082E10E942802892B11F485E0B4CF81E1E0
:100EE0000E942802892B09F0B0CF80914003909195
:100EF00041030196909341038093400386E0A3CF82
:100F0000CF93C82F61E00E94510264E670E080E058
:100F100090E00E94FA0560E08C2FCF910C94510272
:100F2000CF93DF93D82F68EE73E080E090E00E94CB
:100F3000FA05C0E0CD17B1F061E08DE00E945102EA
:100F400064E670E080E090E00E94FA0560E08DE0E9
:100F50000E94510264EF71E080E090E00E94FA0587
:100F6000CF5FE8CFDF91CF9108950F931F93CF9379
:100F7000DF9361E087E00E9451020E947C0584EBD0
:100F800090E00E948D0004E010E061E08DE00E949E
:100F9000510260E08AE00E945102C6E9D0E04EE1D1
:100FA00050E060E070E0CE010E941E036AE070E055
:100FB00080E090E00E94FA05CA56DF4FC23D8FE004
:100FC000D80769F760E08DE00E94510261E08AE095
:100FD0000E945102C0EADFE04EE150E060E070E0C4
:100FE000CE010E941E036AE070E080E090E00E9463
:100FF000FA05C659D109C436D10571F70150110956
:1010000021F688E00E94C10260E08DE00E9451025A
:1010100060E08AE00E945102E0911A048E2F90E075
:10102000FC01EE0FFF1FE80FF91FEB50FC4F808112
:101030008F7B808360E087E0DF91CF911F910F91DC
:101040000C945102CF93DF9361E08DE00E94510236
:1010500060E08AE00E945102C0EADFE04EE150E029
:1010600060E070E0CE010E941E0364E170E080E069
:1010700090E00E94FA05C659D109C436D10571F72E
:1010800088E00E94C10260E08DE0DF91CF910C9476
:101090005102CF93DF9361E08AE00E94510260E049
:1010A0008DE00E945102C6E9D0E048E250E060E0E5
:1010B00070E0CE010E941E036EE170E080E090E0DF
:1010C0000E94FA05CA56DF4FC23D8FE0D80769F784
:1010D00088E00E94C10260E08AE0DF91CF910C9429
:1010E0005102FC0101900020E9F73197AF01481B44
:1010F000590BBC0188E593E00C94F2008F929F920B
:10110000AF92BF920F931F93CF93DF93CDB7DEB70C
:10111000A1970FB6F894DEBF0FBECDBF19A2423023
:1011200008F44AE08E010F5D1F4F842E912CB12CE4
:10113000A12CA50194010E946E11E62FB901CA01EC
:10114000EA30F4F4E05DD801EE938D01232B242BDB
:10115000252B79F790E080E0109719F0CD010E94DF
:101160007108A1960FB6F894DEBF0FBECDBFDF9118
:10117000CF911F910F91BF90AF909F908F90089546
:10118000E95CE1CFCF93DF930E947108EC018FE817
:1011900091E00E9471088C0F9D1FDF91CF910895FF
:1011A000CF93DF93682F70E090E080E04AE00E94E8
:1011B0007E08EC018FE891E00E9471088C0F9D1F62
:1011C000DF91CF910895CF92DF92EF92FF92CF936C
:1011D000DF936C01990FEE08FF08F7FE1FC06DE268
:1011E00088E593E00E949201EC0166277727CB0106
:1011F0006C197D098E099F094AE00E947E08C80F7C
:10120000D91F8FE891E00E9471088C0F9D1FDF911C
:10121000CF91FF90EF90DF90CF9008954AE0C70103
:10122000B6010E947E08EC01ECCF0C942E110F93B6
:101230001F93CF93DF93062F142FC22F0E94E10636
:10124000D0E0CC0FDD1FC80FD91F602FCE010E9448
:101250001509612FCE010196DF91CF911F910F915A
:101260000C941509EF92FF921F93CF93DF9382E9BD
:1012700091E00E94C2088DE00E9480078AE00E94EF
:1012800080078DE00E9480078AE00E9480078DE041
:101290000E9480078AE00E94800761E090E080E081
:1012A0000E94150960E08FEF93E00E94150989E61E
:1012B000E82E81E0F82ED0E0C0E0F70111917F0127
:1012C0002196612FCE010E941509133619F0C43101
:1012D000D10599F70E9400078111FCCFDF91CF91D2
:1012E0001F91FF90EF9008950C9426112F923F923A
:1012F0004F925F926F927F928F929F92AF92BF9226
:10130000CF92DF92EF92FF920F931F93CF93DF93D1
:10131000CDB7DEB7C456D1090FB6F894DEBF0FBE05
:10132000CDBF82E3E5E0F1E0DE01119601900D9280
:101330008A95E1F782E3E7E3F1E0DE01D3960190DD
:101340000D928A95E1F77E0183E3E80EF11C8E0190
:101350000F5F1F4F1701E2E32E0E311C83E0482E72
:10136000512C612C712C9AE6C92E94E0D92E0E9442
:10137000CE10A30192010E943C116115710509F084
:1013800052C061E08AE00E945102F70161917191BF
:101390007F01C6010E94DC124B01770FAA08BB082F
:1013A000B501A401F801819191918F010E941E0362
:1013B000C501B4010E94D71123E333E343EA5FE39D
:1013C0000E943B120E949F11072E000C880B990B64
:1013D0000E94FA0588E00E94C10260E08AE00E9453
:1013E000510260E08DE00E945102E214F30409F022
:1013F000BECFCC59DF4F0FB6F894DEBF0FBECDBFC6
:10140000DF91CF911F910F91FF90EF90DF90CF90E0
:10141000BF90AF909F908F907F906F905F904F9014
:101420003F902F9008956130710519F461E08DE0CF
:10143000AACF6230710509F0A8CF61E08AE00E946E
:101440005102F4CFDF92EF92FF920F931F93CF934D
:10145000DF9390E080E00E947409C82F82EA91E057
:101460000E9471088C2F0E94D0088C2F0E94E106E8
:101470008C0181EB91E00E947108C8010E94E30891
:10148000E801780183E6E80EF11C84E6D82EEC161C
:10149000FD0684F1CE010E947409082FCE01019649
:1014A0000E947409182F86EC91E00E947108802F29
:1014B00090E00E94E3080D9DB0011124072E000C5E
:1014C000880B990B0E94FA05143091F150F41230F8
:1014D00009F138F51130B1F08EEF91E00E94C208A9
:1014E00017C0163099F158F11336B1F78AEF91E031
:1014F0000E94C208DF91CF911F910F91FF90EF9052
:10150000DF90089584ED91E00E94C2080E9449088E
:101510002296BDCF88ED91E00E94C2080E94220869
:10152000F7CF8BED91E00E94C2080E94B507F0CF83
:1015300081EE91E00E94C2080E942D06E9CF87EE5D
:1015400091E00E94C2080E949306E2CF8BEE91E0E8
:101550000E94C2080E947609DBCF1F920F920FB63D
:101560000F9211242F933F934F935F936F937F9329
:101570008F939F93AF93BF93EF93FF9380914C030F
:1015800090914D03A0914E03B0914F03892B8A2B6C
:101590008B2BD1F190914703E0914803F0914903DF
:1015A00080818927808380914C0390914D03A09185
:1015B0004E03B0914F03181619061A061B069CF429
:1015C00080914C0390914D03A0914E03B0914F0335
:1015D0000197A109B10980934C0390934D03A09307
:1015E0004E03B0934F03FF91EF91BF91AF919F9145
:1015F0008F917F916F915F914F913F912F910F90BC
:101600000FBE0F901F901895809100010E94C1029B
:10161000EACF1F920F920FB60F9211242F933F9390
:101620004F935F936F937F938F939F93AF93BF93EA
:10163000EF93FF9388E593E00E947001FF91EF9193
:10164000BF91AF919F918F917F916F915F914F91DA
:101650003F912F910F900FBE0F901F9018951F92E2
:101660000F920FB60F9211242F938F939F93EF93A6
:10167000FF93E0916803F09169038081E0916E032C
:10168000F0916F0382FD1BC09081809171038F5F89
:101690008F7320917203821741F0E0917103F0E0A3
:1016A000E85AFC4F958F80937103FF91EF919F91C2
:1016B0008F912F910F900FBE0F901F9018958081E2
:1016C000F4CF1F920F920FB60F9211242F933F93D6
:1016D0008F939F93AF93BF9380913C0390913D0371
:1016E000A0913E03B0913F033091370323E0230FD5
:1016F0002D3758F50196A11DB11D20933703809316
:101700003C0390933D03A0933E03B0933F0380912D
:10171000380390913903A0913A03B0913B030196AD
:10172000A11DB11D8093380390933903A0933A0310
:10173000B0933B03BF91AF919F918F913F912F91B8
:101740000F900FBE0F901F90189526E8230F02965A
:10175000A11DB11DD2CF1F920F920FB60F9211246F
:101760002F933F934F935F936F937F938F939F93A9
:10177000AF93BF93CF93DF93EF93FF9380913603A3
:10178000C0911904D0E087FF24C010928500109208
:101790008400809136038F5F8093360380913603F7
:1017A000082E000C990B8C179D0724F480913603AA
:1017B0008C30C4F18091840090918500049680342F
:1017C0009C4908F47AC08091840090918500049629
:1017D00076C080913603082E000C990B8C179D075C
:1017E000C4F6E09136038E2FEE0F990BFC01EE0F3D
:1017F000FF1FE80FF91FEB50FC4F808186FFC9CF18
:10180000E09136038E2FEE0F990BFC01EE0FFF1FB8
:10181000E80FF91FEB50FC4F808160E08F730E944E
:101820005102B7CF2091840030918500E0913603BA
:101830008E2FEE0F990BFC01EE0FFF1FE80FF91F23
:10184000EB50FC4F81819281820F931F909389000E
:1018500080938800E09136038E2FEE0F990BFC01E8
:10186000EE0FFF1FE80FF91FEB50FC4F808186FF42
:1018700011C0E09136038E2FEE0F990BFC01EE0F95
:10188000FF1FE80FF91FEB50FC4F808161E08F7361
:101890000E945102FF91EF91DF91CF91BF91AF91E3
:1018A0009F918F917F916F915F914F913F912F9178
:1018B0000F900FBE0F901F90189580E49CE99093B5
:1018C0008900809388008FEF80933603E3CF1092D6
:1018D0005B0310925A0388EE93E0A0E0B0E080939F
:1018E0005C0390935D03A0935E03B0935F0381E874
:1018F00091E0909359038093580385EC90E0909386
:1019000065038093640384EC90E090936703809375
:10191000660380EC90E0909369038093680381EC08
:1019200090E090936B0380936A0382EC90E0909335
:101930006D0380936C0386EC90E090936F0380932B
:101940006E0310927103109272031092730310923F
:101950007403809119048C3098F491E0980F90935F
:10196000190480931A0490E0FC01EE0FFF1FE80FAA
:10197000F91FEB50FC4F88EB9BE092838183089525
:101980008FEF80931A040895789484B5826084BDA3
:1019900084B5816084BD85B5826085BD85B5816073
:1019A00085BD80916E00816080936E0010928100F1
:1019B00080918100826080938100809181008160AC
:1019C000809381008091800081608093800080916D
:1019D000B10084608093B1008091B00081608093F9
:1019E000B00080917A00846080937A0080917A00C0
:1019F000826080937A0080917A00816080937A007F
:101A000080917A00806880937A001092C100E09102
:101A10006803F091690382E08083E0916403F091B0
:101A200065031082E0916603F09167038FEC808379
:101A300010927003E0916C03F0916D0386E0808357
:101A4000E0916A03F0916B03808180618083E09173
:101A50006A03F0916B03808188608083E0916A0360
:101A6000F0916B03808180688083E0916A03F0913C
:101A70006B0380818F7D808382E192E00E94C208A7
:101A800061E084E00E94ED0260E084E00E94510287
:101A900061E08DE00E94ED0260E08DE00E94510265
:101AA00061E08AE00E94ED0260E08AE00E9451025B
:101AB00062E08EE00E94ED0262E08FE00E94ED02A3
:101AC00062E080E10E94ED0262E083E10E94ED02AB
:101AD00062E082E10E94ED0262E081E10E94ED029B
:101AE00061E087E00E94ED0260E087E00E94510221
:101AF0008FEF93E00E9474098F3F11F40E94320926
:101B0000C3E0D0E00E940007882389F0809146035B
:101B1000813069F48DE00E94800768EE73E080E018
:101B200090E00E94FA05219769F70E943209C3E00C
:101B3000D0E00E9400078823F9F0809146038230AC
:101B4000D9F48AE00E94800768EE73E080E090E0BC
:101B50000E94FA05219769F78FEF93E00E947409BC
:101B6000813009F05BC160E08FEF93E00E941509BE
:101B700081E392E00E94C208C2E0D0E00E94000728
:101B8000882309F43EC180914603843009F039C1AD
:101B90008AE00E94800764E670E080E090E00E94A6
:101BA000FA05219709F042C18CE492E00E94C20834
:101BB0008DE00E9480078AE00E9480070E94000753
:101BC0008111FCCF0E9400078823E1F38EE00E9480
:101BD0002802892BD9F78FE00E9428020197B1F7DC
:101BE00080E10E942802019789F781E10E94280282
:101BF000019761F782E10E942802019739F783E19A
:101C00000E942802019711F781E692E00E94C20823
:101C10008DE00E9480078EE00E9428020197D9F78C
:101C20008FE00E942802892BB1F780E10E942802F0
:101C3000019789F781E10E942802019761F782E10B
:101C40000E942802019739F783E10E942802019738
:101C500011F784E792E00E94C2088DE00E9480079D
:101C60008EE00E9428020197D9F78FE00E94280297
:101C70000197B1F780E10E942802892B89F781E161
:101C80000E942802019761F782E10E9428020197D1
:101C900039F783E10E942802019711F788E892E062
:101CA0000E94C2088DE00E9480078EE00E942802F8
:101CB0000197D9F78FE00E9428020197B1F780E1E0
:101CC0000E942802019789F781E10E942802892B4E
:101CD00061F782E10E942802019739F783E10E94AF
:101CE0002802019711F78DE992E00E94C2088AE06C
:101CF0000E9480078EE00E9428020197D9F78FE0AA
:101D00000E9428020197B1F780E10E942802019702
:101D100089F781E10E942802019761F782E10E9420
:101D20002802892B39F783E10E942802019711F7D5
:101D300082EB92E00E94C2088AE00E9480078EE057
:101D40000E9428020197D9F78FE00E94280201978C
:101D5000B1F780E10E942802019789F781E10E9492
:101D60002802019761F782E10E942802019739F762
:101D700083E10E942802892B11F784EC92E00E94F3
:101D8000C2088AE00E94800761E087E00E94510259
:101D90000E947C0584EB90E00E948D0064EF71E06E
:101DA00080E090E00E94FA058AE590E00E948D00B4
:101DB00064EF71E080E090E00E94FA054CE251E0AF
:101DC00060E070E084EF91E00E941E036CE271E03D
:101DD00080E090E00E94FA0588E00E94C102E09154
:101DE0001A048E2F90E0FC01EE0FFF1FE80FF91F81
:101DF000EB50FC4F80818F7B808360E087E00E9406
:101E000051028FEF93E00E947409813091F48FE3C7
:101E100092E00E94C2080E94220AFFCF61E08FEF89
:101E200093E00E9415098FE392E0A4CEC1E0D0E0D8
:101E3000A5CE90E080E00E947409C82F81E392E073
:101E40000E94C20887ED92E00E9471088C2F0E94C8
:101E5000D0088C2F0E94900700E010E00E9400073D
:101E6000882309F4B6C080914603823009F422C168
:101E700058F48130C9F081E293E00E9471088091AA
:101E800046030E94D008A5C0833009F416C18630ED
:101E900091F78091400390914103893C91050CF4A6
:101EA00098C00E94B50795C0809144039091450366
:101EB000893C91050CF48DC08DE00E9480070E9442
:101EC00000078111FCCF90E080E00E947409D82FB8
:101ED00086EE92E00E9471088D2F0E94D0088FB785
:101EE000F89480903C0390903D03A0903E03B09006
:101EF0003F038FBFC0E061E08DE00E9451026AE0C5
:101F000070E080E090E00E94FA0560E08DE00E94C1
:101F1000510264E670E080E090E00E94FA052FB77D
:101F2000F89460913C0370913D0380913E03909141
:101F30003F032FBF681979098A099B0924E630E01D
:101F400040E050E00E943C1169017A018FEFC81611
:101F5000D104E104F10429F024F0C12CD12C760144
:101F6000CA9487EF92E00E9471088C2D0E94D008DD
:101F70000E940007782E882309F4BDCF61E08DE030
:101F80000E945102809146038430A9F584ED91E0CE
:101F90000E94C2082C2F41E06C2D8D2F0E94170942
:101FA000CF5F0E944908809146038250823058F0EA
:101FB0008FB7F89480903C0390903D03A0903E032F
:101FC000B0903F038FBF60E08DE00E94510271101E
:101FD00092CF6AE070E080E090E00E94FA0501157F
:101FE000110509F43BCF0E945C01882309F436CF28
:101FF0000E94000033CF853071F488ED91E00E949B
:10200000C2082C2F42E06C2D8D2F0E941709CF5F44
:102010000E942208C8CF863071F48BED91E00E94B7
:10202000C2082C2F43E06C2D8D2F0E941709CF5F23
:102030000E94B507B8CF873071F481EE91E00E941D
:10204000C2082C2F44E06C2D8D2F0E941709CF5F02
:102050000E942D06A8CF883071F487EE91E00E948F
:10206000C2082C2F45E06C2D8D2F0E941709CF5FE1
:102070000E94930698CF893071F48BEE91E00E9414
:10208000C2082C2F46E06C2D8D2F0E941709CF5FC0
:102090000E94760988CF813009F085CF8AEF91E0E0
:1020A0000E94C2082C2F43E66C2D8D2F0E94170929
:1020B000712C79CF0E94220A8CCF8091420390919B
:1020C0004303893C91050CF484CF83E093E00E94A4
:1020D000C20890E080E00E947409C1E0C80FC630D9
:1020E00009F4C1E089E193E00E9471088C2F0E94FD
:1020F000D0088C2F0E9490076C2F90E080E00E9407
:10210000150967CF8F929F92AF92BF92CF92DF92C5
:10211000EF92FF92CF93DF93EC01688179818A81FE
:102120009B81611571058105910521F464E279EDCA
:102130008BE597E02DE133EF41E050E00E943C1148
:1021400049015A019B01AC01A7EAB1E40E945B116D
:102150006B017C01ACEEB4EFA50194010E94691102
:10216000C60ED71EE81EF91EF7FE06C081E0C81A8B
:10217000D108E10880E8F80AC882D982EA82FB82A5
:10218000C701B6019F77DF91CF91FF90EF90DF906D
:10219000CF90BF90AF909F908F9008958F929F9215
:1021A000AF92BF92CF92DF92EF92FF9260910101C6
:1021B00070910201809103019091040161157105F4
:1021C0008105910521F464E279ED8BE597E02DE13D
:1021D00033EF41E050E00E943C1149015A019B015C
:1021E000AC01A7EAB1E40E945B116B017C01ACEE8B
:1021F000B4EFA50194010E946911C60ED71EE81E16
:10220000F91EF7FE06C081E0C81AD108E10880E88F
:10221000F80AC0920101D0920201E0920301F0920B
:102220000401C701B6019F77FF90EF90DF90CF9038
:10223000BF90AF909F908F9008956093010170932D
:10224000020180930301909304010895F999FECF50
:1022500092BD81BDF89A992780B50895262FF999E6
:10226000FECF1FBA92BD81BD20BD0FB6F894FA9A79
:10227000F99A0FBE01960895052E97FB1EF400945F
:102280000E94531157FD07D00E946E1107FC03D026
:102290004EF40C94531150954095309521953F4F35
:1022A0004F4F5F4F089590958095709561957F4F42
:1022B0008F4F9F4F08950E949011A59F900DB49F3E
:1022C000900DA49F800D911D11240895B7FF0C94CB
:1022D0005B110E945B11821B930B0895A1E21A2EE1
:1022E000AA1BBB1BFD010DC0AA1FBB1FEE1FFF1FBA
:1022F000A217B307E407F50720F0A21BB30BE40B0A
:10230000F50B661F771F881F991F1A9469F7609550
:102310007095809590959B01AC01BD01CF0108950A
:10232000A29FB001B39FC001A39F700D811D112416
:10233000911DB29F700D811D1124911D08950E9461
:10234000A6116894B1110C94351208950E941A12C6
:1023500088F09F5798F0B92F9927B751B0F0E1F066
:10236000660F771F881F991F1AF0BA95C9F714C016
:10237000B13091F00E943412B1E008950C943412FF
:10238000672F782F8827B85F39F0B93FCCF386954F
:1023900077956795B395D9F73EF4909580957095AC
:1023A00061957F4F8F4F9F4F0895E89409C097FB29
:1023B0003EF490958095709561957F4F8F4F9F4F1C
:1023C0009923A9F0F92F96E9BB279395F695879560
:1023D00077956795B795F111F8CFFAF4BB0F11F423
:1023E00060FF1BC06F5F7F4F8F4F9F4F16C08823CA
:1023F00011F096E911C0772321F09EE8872F762F00
:1024000005C0662371F096E8862F70E060E02AF040
:102410009A95660F771F881FDAF7880F969587952C
:1024200097F9089557FD9058440F551F59F05F3F95
:1024300071F04795880F97FB991F61F09F3F79F0E6
:1024400087950895121613061406551FF2CF469568
:10245000F1DF08C0161617061806991FF1CF8695EA
:102460007105610508940895E894BB2766277727CE
:10247000CB0197F908950E944E120C94BF120E944E
:10248000B11238F00E94B81220F0952311F00C948C
:10249000A8120C94AE1211240C9435120E94121240
:1024A00070F3959FC1F3950F50E0551F629FF001A7
:1024B000729FBB27F00DB11D639FAA27F00DB11DC0
:1024C000AA1F649F6627B00DA11D661F829F222749
:1024D000B00DA11D621F739FB00DA11D621F839FD0
:1024E000A00D611D221F749F3327A00D611D231FA6
:1024F000849F600D211D822F762F6A2F11249F57F4
:1025000050409AF0F1F088234AF0EE0FFF1FBB1FF6
:10251000661F771F881F91505040A9F79E3F5105B5
:1025200080F00C94A8120C9435125F3FE4F3983EAF
:10253000D4F3869577956795B795F795E7959F5F5F
:10254000C1F7FE2B880F911D9695879597F90895F1
:1025500097F99F6780E870E060E008959FEF80EC56
:10256000089500240A9416161706180609060895F9
:1025700000240A9412161306140605060895092E5F
:102580000394000C11F4882352F0BB0F40F4BF2BCE
:1025900011F460FF04C06F5F7F4F8F4F9F4F08950E
:1025A000991B79E004C0991F961708F0961B881FA5
:1025B0007A95C9F78095089597FB072E16F4009435
:1025C00007D077FD09D00E94F01207FC05D03EF439
:1025D000909581959F4F0895709561957F4F0895CF
:1025E000AA1BBB1B51E107C0AA1FBB1FA617B70739
:1025F00010F0A61BB70B881F991F5A95A9F7809555
:102600009095BC01CD010895EE0FFF1F0590F49148
:10261000E02D0994F894FFCFFF01000000060106A9
:1026200001260106015D014A010601060126010697
:102630000188015D01060106010B02B8015D014A36
:10264000012601D201D201B8015D0188015D0108B6
:102650000008000400040004000200080008000450
:102660000004000400020008000800040004000444
:102670000004000400080008000400040004000234
:1026800000380133010201480243022B02370101E5
:10269000010F030063000000009201F2001F01DF40
:1026A0000150012E0142010D0A00466163746F72F0
:1026B00079205265736574212100506C6179696ECF
:1026C0006720747261636B200073746172745F6D54
:1026D000656D5F6C6F636174696F6E3A200065763B
:1026E000656E745F64656C61793A200059455300EA
:1026F0004E4F00534E414B45004C41554748004317
:10270000525900484150505920424952544844417E
:102710005900454E4400496E76616C6964206576C7
:10272000656E74207479706521004F70656E536E0C
:10273000616B65204669726D7761726520566572BE
:1027400073696F6E20312E32004175746F706C6149
:1027500079206F66662E004175746F706C61792008
:102760006F6E2E0050726F64756374696F6E2054C3
:10277000657374696E672121005245432062757448
:10278000746F6E207375636365737300504C4159A9
:1027900020627574746F6E20737563636573730064
:1027A000545241434B20627574746F6E207375638D
:1027B0006365737300534E414B4520627574746FAB
:1027C0006E2073756363657373004E4F206275747A
:1027D000746F6E207375636365737300594553207E
:1027E000627574746F6E20737563636573730043F1
:1027F000757272656E7420747261636B200052652D
:10280000636F7264696E6720747261636B20006528
:1028100076656E745F64656C617900496E6372659C
:102820006D656E74696E6720747261636B2E2E2EF7
:1028300000747261636B3A2000496E76616C696462
:0E2840002075736572496E7075743A20000041
:107E0000112484B714BE81FFF0D085E080938100F7
:107E100082E08093C00088E18093C10086E0809377
:107E2000C20080E18093C4008EE0C9D0259A86E02C
:107E300020E33CEF91E0309385002093840096BBD3
:107E4000B09BFECF1D9AA8958150A9F7CC24DD24C4
:107E500088248394B5E0AB2EA1E19A2EF3E0BF2EE7
:107E6000A2D0813461F49FD0082FAFD0023811F036
:107E7000013811F484E001C083E08DD089C08234E0
:107E800011F484E103C0853419F485E0A6D080C0E4
:107E9000853579F488D0E82EFF2485D0082F10E0AE
:107EA000102F00270E291F29000F111F8ED06801E7
:107EB0006FC0863521F484E090D080E0DECF843638
:107EC00009F040C070D06FD0082F6DD080E0C81688
:107ED00080E7D80618F4F601B7BEE895C0E0D1E017
:107EE00062D089930C17E1F7F0E0CF16F0E7DF06D8
:107EF00018F0F601B7BEE89568D007B600FCFDCFD4
:107F0000A601A0E0B1E02C9130E011968C91119780
:107F100090E0982F8827822B932B1296FA010C0160
:107F200087BEE89511244E5F5F4FF1E0A038BF0790
:107F300051F7F601A7BEE89507B600FCFDCF97BE46
:107F4000E89526C08437B1F42ED02DD0F82E2BD052
:107F50003CD0F601EF2C8F010F5F1F4F84911BD097
:107F6000EA94F801C1F70894C11CD11CFA94CF0C13
:107F7000D11C0EC0853739F428D08EE10CD085E9AC
:107F80000AD08FE07ACF813511F488E018D01DD067
:107F900080E101D065CF982F8091C00085FFFCCF94
:107FA0009093C60008958091C00087FFFCCF809118
:107FB000C00084FD01C0A8958091C6000895E0E648
:107FC000F0E098E1908380830895EDDF803219F02E
:107FD00088E0F5DFFFCF84E1DECF1F93182FE3DFCA
:107FE0001150E9F7F2DF1F91089580E0E8DFEE27F6
:047FF000FF270994CA
:027FFE00040479
:00000001FF
