:020000040000FA
:100000000C9463000C948B000C948B000C948B006C
:100010000C948B000C948B000C948B000C945F0A56
:100020000C948B000C948B000C948B000C945D0B47
:100030000C948B000C948B000C948B000C948B0014
:100040000C94130B0C948B000C94E10A0C94BB0AD7
:100050000C948B000C948B000C948B000C948B00F4
:100060000C948B000C948B000000000024002700EF
:100070002A000000000023002600290000000008DC
:10008000000201000003040700000000000000005F
:10009000010204081020408001020408102001021F
:1000A0000408102000000000250028002B00040494
:1000B0000404040404040202020202020303030310
:1000C00003030200190C11241FBECFEFD8E0DEBFDE
:1000D000CDBF12E0A0E0B1E0EAEEF2E202C005908E
:1000E0000D92AA3AB107D9F723E0AAEAB2E001C01B
:1000F0001D92A139B207E1F710E0C3E6D0E004C0D9
:100100002197FE010E946D11C236D107C9F70E94E6
:10011000760C0C9473110C940000AF92BF92CF92A6
:10012000DF92EF92FF920F931F93CF93DF936C01B7
:100130007B018B01040F151FEB015E01AE18BF0898
:10014000C017D10759F06991D601ED91FC9101904A
:10015000F081E02DC6010995892B79F7C501DF9162
:10016000CF911F910F91FF90EF90DF90CF90BF90B4
:10017000AF900895FC01538D448D252F30E0842FDE
:1001800090E0821B930B541710F0CF9608950197BF
:100190000895FC01918D828D981761F0A28DAE0FAC
:1001A000BF2FB11D5D968C91928D9F5F9F73928F33
:1001B00090E008958FEF9FEF0895FC01918D828D5F
:1001C000981731F0828DE80FF11D858D90E008952C
:1001D0008FEF9FEF0895FC01918D228D892F90E084
:1001E000805C9F4F821B91098F73992708958CEC37
:1001F00092E00E94EB0021E0892B09F420E0822F9D
:10020000089580E090E0892B29F00E94F700811189
:100210000C9400000895FC01A48DA80FB92FB11D06
:10022000A35ABF4F2C91848D90E001968F7399272C
:10023000848FA689B7892C93A089B1898C9183700A
:1002400080648C93938D848D981306C00288F38903
:10025000E02D80818F7D80830895EF92FF920F9330
:100260001F93CF93DF93EC0181E0888F9B8D8C8D62
:1002700098131AC0E889F989808185FF15C09FB756
:10028000F894EE89FF896083E889F9898081837019
:10029000806480839FBF81E090E0DF91CF911F91C8
:1002A0000F91FF90EF900895F62E0B8D10E00F5FE9
:1002B0001F4F0F731127E02E8C8D8E110CC00FB6BF
:1002C00007FCFACFE889F989808185FFF5CFCE0157
:1002D0000E940B01F1CFEB8DEC0FFD2FF11DE35AC6
:1002E000FF4FF0829FB7F8940B8FEA89FB898081DA
:1002F0008062CFCFCF93DF93EC01888D8823B9F054
:10030000AA89BB89E889F9898C9185FD03C0808120
:1003100086FD0DC00FB607FCF7CF8C9185FFF2CF9D
:10032000808185FFEDCFCE010E940B01E9CFDF91E7
:10033000CF910895833081F028F4813099F0823094
:10034000A9F008958730A9F08830C9F08430B1F45D
:10035000809180008F7D03C0809180008F77809393
:100360008000089584B58F7784BD089584B58F7D0E
:10037000FBCF8091B0008F778093B000089580917B
:10038000B0008F7DF9CFCF93DF93282F30E0F901B4
:10039000E458FF4F8491F901E057FF4FD491F901E0
:1003A000E255FF4FC491CC23A1F081110E949A0124
:1003B000EC2FF0E0EE0FFF1FEE58FF4FA591B49128
:1003C000EC91ED2381E090E009F480E0DF91CF91A2
:1003D000089580E090E0FACF1F93CF93DF93282F0A
:1003E00030E0F901E458FF4F8491F901E057FF4FE5
:1003F000D491F901E255FF4FC491CC23A9F0162FF7
:1004000081110E949A01EC2FF0E0EE0FFF1FEC55D6
:10041000FF4FA591B4918FB7F894EC91111108C0DA
:10042000D095DE23DC938FBFDF91CF911F9108958C
:10043000DE2BF8CF8F929F92AF92BF92CF92DF9236
:10044000EF92FF92CF93DF939C012253310927361D
:100450003A4338F5EC01CC0FDD1FCC0FDD1F25979B
:10046000880F991F6C01F12CE12C812C912C5401E7
:1004700061E088E00E94EC01CE010197F1F760E0B5
:1004800088E00E94EC01CE010197F1F78C0C9D1CD5
:10049000AE1CBF1C80E488168FE19806A104B1044D
:1004A0003CF3DF91CF91FF90EF90DF90CF90BF9022
:1004B000AF909F908F9008959091000189130BC089
:1004C000E2ECF0E0E4919FEF90930001E13049F01D
:1004D00028F0E23061F060E00C94EC0110926E00C4
:1004E000FACF90916F009D7F90936F00F4CF909121
:1004F00070009D7F9093700091E09093B000909178
:10050000B100987F94609093B1001092B300E3CF54
:10051000CF93DF9390E0FC01E057FF4F2491825589
:100520009F4FFC0184918823D1F090E0880F991FA0
:10053000FC01E859FF4FA591B491FC01EC55FF4F28
:10054000C591D491623071F49FB7F8943C91822F99
:10055000809583238C93E8812E2B28839FBFDF9186
:10056000CF9108958FB7F894EC912E2B2C938FBFD9
:10057000F6CF4F925F926F927F928F929F92AF923F
:10058000BF92CF92DF92EF92FF920F931F93CF9380
:10059000DF9300D000D01F92CDB7DEB78C012A01C7
:1005A0003B01809100018830C9F08F3F09F47FC082
:1005B0000F900F900F900F900F90DF91CF911F91A0
:1005C0000F91FF90EF90DF90CF90BF90AF909F90F2
:1005D0008F907F906F905F904F900895E2ECF0E0E5
:1005E00084918D8387FDE4CF61E088E00E948802DA
:1005F0008D81882321F09D81923009F05CC14801F2
:10060000B12CA12C60E072E18AE790E0A50198018D
:100610000E94A50F29833A834B835C8369017A0189
:1006200081E0C81AD108E108F1089FEFC916D1048A
:10063000E104F10409F00CF413C160E472E48FE00A
:1006400090E0A50198010E94A50F69017A0181E05F
:10065000C81AD108E108F1089D81923009F098C0CC
:100660008FEFC816D104E104F10409F00CF4DDC1E8
:1006700060E970ED83E090E0A50198010E94A50F6C
:1006800069017A0191E0C91AD108E108F1088FEFF8
:10069000C816D104E104F10411F00CF0A3C183E009
:1006A0009091B100987F892B8093B100E1C088E0E0
:1006B00080930001E2ECF0E094919D839F3F09F468
:1006C00077CF913029F158F0923009F43FC08D81F5
:1006D00087FD6ECF61E088E00E9488028CCF14BC59
:1006E00015BC84B5826084BD85B5816085BDE6EBAF
:1006F000F0E0E491F0E0EE0FFF1FEC55FF4F859125
:100700009491E8E9F0E0E491E093BF021D826CCFA0
:100710001092800010928100809181008860809307
:10072000810080918100816080938100E6EBF0E0A0
:10073000E491F0E0EE0FFF1FEC55FF4F859194918F
:10074000E8E9F0E0E491E093BE024ECF1092B000F1
:100750001092B1008091B00082608093B0008091CF
:10076000B10081608093B100E6EBF0E0E491F0E04D
:10077000EE0FFF1FEC55FF4F859194919093BD02B2
:100780008093BC02E8E9F0E0E491E093BB022CCF57
:100790009FEFC916D104E104F10409F00CF489C0FB
:1007A00068E478EE81E090E0A50198010E94A50F31
:1007B00069017A0181E0C81AD108E108F1089D8138
:1007C000992309F428C19FEFC916D104E104F1046B
:1007D00009F00CF41EC162E17AE780E090E0A50127
:1007E00094010E94A50F69017A0181E0C81AD1081D
:1007F000E108F1089D81992309F4EBC08FEFC81639
:10080000D104E104F10411F008F0BFC086E048CF44
:1008100064E274EF80E090E0A50194010E94A50FCE
:1008200069017A0181E0C81AD108E108F10885E080
:100830009FEFC916D104E104F10409F008F430CFA8
:1008400062E17AE780E090E0A50194010E94A50FA3
:1008500069017A0191E0C91AD108E108F108CECF07
:1008600081E09D8191111CCF95B5987F892B85BD25
:100870002FEF3FEFA901411451046104710409F005
:1008800043C09D81913009F45EC0923009F46DC07F
:1008900091118ECEC7BC2093C8023093C9024093F9
:1008A000CA025093CB0280916E00826080936E00EA
:1008B0007FCE82E0D6CFB12CA12C60E072E18AE736
:1008C00090E0A50198010E94A50F69017A0181E0DD
:1008D000C81AD108E108F108C114D10491E0E90671
:1008E000F10404F591E08D81813011F68091810051
:1008F000887F892B809381002FEF3FEFA90141145E
:10090000510461047104F9F0D801AA0FBB1FA301BF
:1009100092010E94C40F28EE33E040E050E00E94B4
:10092000D70FAFCF68E478EE81E090E0A5019801A1
:100930000E94A50F69017A0181E0C81AD108E10877
:10094000F10893E0D0CFD0928900C0928800209324
:10095000C4023093C5024093C6025093C7028091EF
:100960006F00826080936F0023CEC092B30020930B
:10097000C0023093C1024093C2025093C3028091DF
:10098000700082608093700013CEC980DA80EB80A3
:10099000FC809AE0F594E794D794C7949A95D1F7A0
:1009A00091E0C91AD108E108F10887E079CEC98041
:1009B000DA80EB80FC808AE0F594E794D794C794C2
:1009C0008A95D1F791E0C91AD108E108F10885E0CC
:1009D0004BCF8FEFC816D104E104F10409F038F7CA
:1009E00084E042CF68E478EE81E090E0A5019801D0
:1009F0000E94A50F69017A0191E0C91AD108E108A6
:100A0000F1088FEFC816D104E104F10411F00CF0E5
:100A1000FFCE84E045CE8FEFC816D104E104F10487
:100A200011F00CF0D8CE83E01FCF82E039CE3FB773
:100A3000F8948091AC029091AD02A091AE02B09179
:100A4000AF0226B5A89B05C02F3F19F00196A11D46
:100A5000B11D3FBFBA2FA92F982F8827BC01CD0108
:100A6000620F711D811D911D42E0660F771F881F67
:100A7000991F4A95D1F708958F929F92AF92BF9296
:100A8000CF92DF92EF92FF926B017C010E941705DB
:100A90004B015C01C114D104E104F104B9F00E94DE
:100AA0001705681979098A099B09683E7340810511
:100AB000910580F321E0C21AD108E108F10888EE1F
:100AC000880E83E0981EA11CB11CE4CFFF90EF902C
:100AD000DF90CF90BF90AF909F908F900895CF936D
:100AE000DF9361E088E00E94880260E08DE00E9470
:100AF000EC0161E08AE00E94EC01CAE8D2E0CE019C
:100B00000E941A022397CC3082E0D807C1F760E038
:100B10008AE00E94EC0168EC70E080E090E00E94C6
:100B20003C0561E08AE00E94EC01C0E2D3E0CE0126
:100B30000E941A022397C33982E0D807C1F760E008
:100B40008AE00E94EC0168EC70E080E090E00E9496
:100B50003C0561E08AE00E94EC01C4E8D3E0CE01EC
:100B60000E941A022397C83E82E0D807C1F760E0CE
:100B70008AE00E94EC0168EC70E080E090E00E9466
:100B80003C0561E08AE00E94EC01CEEDD3E0CE01AD
:100B90000E941A022397C13583E0D807C1F760E0AD
:100BA0008AE0DF91CF910C94EC01CF93DF9361E069
:100BB00088E00E94880260E08AE00E94EC0161E027
:100BC0008DE00E94EC01C4EFD1E0CE010E941A0238
:100BD0002396CD3B82E0D807C1F760E08DE00E940C
:100BE000EC0164EF71E080E090E00E943C0561E080
:100BF0008DE00E94EC01C8E5D2E0CE010E941A020D
:100C00002396C13283E0D807C1F760E08DE00E94EF
:100C1000EC0164EF71E080E090E00E943C0561E04F
:100C20008DE00E94EC01CCEBD2E0CE010E941A02D2
:100C30002396C83B83E0D807C1F760E08DE0DF91E1
:100C4000CF910C94EC01813059F0823061F0833007
:100C500069F0843071F0853079F0863081F0089544
:100C600081E090E0089584E690E0089588EC90E0BB
:100C700008958CE291E0089580E991E0089584EF71
:100C800091E008951092BA028EE00E94C30101978C
:100C900021F41092B9021092B80280E10E94C301BF
:100CA000019721F41092B7021092B60281E10E94DE
:100CB000C301019721F41092B5021092B4028FE0A3
:100CC0000E94C301892B51F482E08093BA0281E033
:100CD0009091BA02911101C080E008958EE00E94C7
:100CE000C301892B59F48091B8029091B902019601
:100CF0009093B9028093B80281E0E7CF80E10E942F
:100D0000C301892B01F58091B6029091B70201963B
:100D10009093B7028093B60283E10E94C301892BAE
:100D200011F487E0D2CF82E10E94C301892B11F434
:100D300088E0CBCF81E10E94C301892B11F489E0C7
:100D4000C4CF83E0C2CF83E10E94C301892B11F499
:100D500084E0BBCF82E10E94C301892B11F485E0BE
:100D6000B4CF81E10E94C301892B09F0B0CF8091FB
:100D7000B4029091B50201969093B5028093B402AB
:100D800086E0A3CFCF93C82F61E00E94EC0164E618
:100D900070E080E090E00E943C0560E08C2FCF91F5
:100DA0000C94EC01CF93DF93D82F68EE73E080E0D2
:100DB00090E00E943C05C0E0CD17B1F061E08DE00D
:100DC0000E94EC0164E670E080E090E00E943C0547
:100DD00060E08DE00E94EC0164EF71E080E090E063
:100DE0000E943C05CF5FE8CFDF91CF9108950F932C
:100DF0001F93CF93DF9361E087E00E94EC01809125
:100E00008E038C3008F051C061E089E00E948802B6
:100E100080918E03282F30E0F901EE0FFF1FE20FC3
:100E2000F31FE759FC4F9081907C9960908310925A
:100E30008F03109290032CE0622F0E943911829F41
:100E4000B001112430E020E0AB01420F531FFA0142
:100E5000EE0FFF1FE40FF51FE759FC4F908196FD41
:100E600016C02F5F3F4F2C30310571F781110FC035
:100E70001092800082E08093810010928500109291
:100E80008400B19A80916F00826080936F00E0913E
:100E90008E038E2F90E0FC01EE0FFF1FE80FF91F6D
:100EA000E759FC4F808180648083E0918E03EC30B1
:100EB000E0F42091900388E592E0821B910927FDE0
:100EC000939533E0880F991F3A95E1F704974FB750
:100ED000F8942E2F30E0F901EE0FFF1FE20FF31F01
:100EE000E759FC4F928381834FBF04E010E061E03B
:100EF0008DE00E94EC0160E08AE00E94EC01C6E90E
:100F0000D0E04EE150E060E070E0CE010E94B90216
:100F10006AE070E080E090E00E943C05CA56DF4F36
:100F2000C23D8FE0D80769F760E08DE00E94EC01D8
:100F300061E08AE00E94EC01C0EADFE04EE150E0AF
:100F400060E070E0CE010E94B9026AE070E080E0EB
:100F500090E00E943C05C659D109C436D10571F70D
:100F60000150110921F688E00E945C0260E08DE0EA
:100F70000E94EC0160E08AE00E94EC01E0918E03A7
:100F80008E2F90E0FC01EE0FFF1FE80FF91FE759CD
:100F9000FC4F80818F7B808360E087E0DF91CF9181
:100FA0001F910F910C94EC01CF93DF9361E08DE0E2
:100FB0000E94EC0160E08AE00E94EC01C0EADFE000
:100FC0004EE150E060E070E0CE010E94B90264E1C1
:100FD00070E080E090E00E943C05C659D109C4361B
:100FE000D10571F788E00E945C0260E08DE0DF913E
:100FF000CF910C94EC01CF93DF9361E08AE00E94E3
:10100000EC0160E08DE00E94EC01C6E9D0E048E22E
:1010100050E060E070E0CE010E94B9026EE170E045
:1010200080E090E00E943C05CA56DF4FC23D8FE051
:10103000D80769F788E00E945C0260E08AE0DF91EF
:10104000CF910C94EC01FC0101900020E9F731975D
:10105000AF01481B590BBC018CEC92E00C948D0045
:101060008F929F92AF92BF920F931F93CF93DF9374
:10107000CDB7DEB7A1970FB6F894DEBF0FBECDBFD8
:1010800019A2423008F44AE08E010F5D1F4F842EF2
:10109000912CB12CA12CA50194010E94D70FE62F11
:1010A000B901CA01EA30F4F4E05DD801EE938D0194
:1010B000232B242B252B79F790E080E0109719F053
:1010C000CD010E942308A1960FB6F894DEBF0FBE93
:1010D000CDBFDF91CF911F910F91BF90AF909F90A7
:1010E0008F900895E95CE1CFCF93DF930E942308AE
:1010F000EC018FE891E00E9423088C0F9D1FDF9187
:10110000CF910895CF93DF93682F70E090E080E057
:101110004AE00E943008EC018FE891E00E94230829
:101120008C0F9D1FDF91CF910895CF92DF92EF92A8
:10113000FF92CF93DF936C01990FEE08FF08F7FE43
:101140001FC06DE28CEC92E00E942D01EC0166273D
:101150007727CB016C197D098E099F094AE00E940F
:101160003008C80FD91F8FE891E00E9423088C0F28
:101170009D1FDF91CF91FF90EF90DF90CF9008956A
:101180004AE0C701B6010E943008EC01ECCF0C9494
:10119000970F0F931F93CF93DF93062F142FC22F18
:1011A0000E942306D0E0CC0FDD1FC80FD91F602F8F
:1011B000CE010E94C708612FCE010196DF91CF9129
:1011C0001F910F910C94C708EF92FF921F93CF933A
:1011D000DF9382E991E00E9474088DE00E94C206CC
:1011E0008AE00E94C2068DE00E94C2068AE00E9448
:1011F000C2068DE00E94C2068AE00E94C20661E03B
:1012000090E080E00E94C70860E08FEF93E00E94CA
:10121000C70889E6E82E81E0F82ED0E0C0E0F701AB
:1012200011917F012196612FCE010E94C7081336CC
:1012300019F0C431D10599F70E9442068111FCCF03
:10124000DF91CF911F91FF90EF9008950C948F0F35
:101250002F923F924F925F926F927F928F929F92C6
:10126000AF92BF92CF92DF92EF92FF920F931F93B4
:10127000CF93DF93CDB7DEB7C456D1090FB6F8943C
:10128000DEBF0FBECDBF82E3E5E0F1E0DE011196E7
:1012900001900D928A95E1F782E3E7E3F1E0DE0148
:1012A000D39601900D928A95E1F77E0183E3E80ED3
:1012B000F11C8E010F5F1F4F1701E2E32E0E311C50
:1012C00083E0482E512C612C712C9AE6C92E94E0B3
:1012D000D92E0E94370FA30192010E94A50F61151C
:1012E000710509F052C061E08AE00E94EC01F7014B
:1012F000619171917F01C6010E9445114B01770FE9
:10130000AA08BB08B501A401F801819191918F0150
:101310000E94B902C501B4010E94401023E333E3E7
:1013200043EA5FE30E94A4100E940810072E000CFD
:10133000880B990B0E943C0588E00E945C0260E0EB
:101340008AE00E94EC0160E08DE00E94EC01E21472
:10135000F30409F0BECFCC59DF4F0FB6F894DEBFCF
:101360000FBECDBFDF91CF911F910F91FF90EF90F6
:10137000DF90CF90BF90AF909F908F907F906F90B5
:101380005F904F903F902F9008956130710519F450
:1013900061E08DE0AACF6230710509F0A8CF61E06D
:1013A0008AE00E94EC01F4CFDF92EF92FF920F935C
:1013B0001F93CF93DF9390E080E00E942609C82F0F
:1013C00082EA91E00E9423088C2F0E9482088C2FD1
:1013D0000E9423068C0181EB91E00E942308C80142
:1013E0000E949508E801780183E6E80EF11C84E686
:1013F000D82EEC16FD0684F1CE010E942609082F96
:10140000CE0101960E942609182F86EC91E00E94D9
:101410002308802F90E00E9495080D9DB0011124B3
:10142000072E000C880B990B0E943C05143091F19B
:1014300050F4123009F138F51130B1F08EEF91E02F
:101440000E94740817C0163099F158F11336B1F79D
:101450008AEF91E00E947408DF91CF911F910F9164
:10146000FF90EF90DF90089584ED91E00E94740862
:101470000E94FB072296BDCF88ED91E00E94740880
:101480000E94D407F7CF8BED91E00E9474080E9470
:10149000F706F0CF81EE91E00E9474080E946F057C
:1014A000E9CF87EE91E00E9474080E94D505E2CF53
:1014B0008BEE91E00E9474080E942809DBCF1F92F6
:1014C0000F920FB60F9211242F933F934F935F9378
:1014D0006F937F938F939F93AF93BF93EF93FF93FC
:1014E0008091C0029091C102A091C202B091C3024A
:1014F000892B8A2B8B2BD1F19091BB02E091BC02FE
:10150000F091BD028081892780838091C0029091F3
:10151000C102A091C202B091C302181619061A06A0
:101520001B069CF48091C0029091C102A091C2025E
:10153000B091C3020197A109B1098093C0029093B1
:10154000C102A093C202B093C302FF91EF91BF9179
:10155000AF919F918F917F916F915F914F913F914B
:101560002F910F900FBE0F901F9018958091000142
:101570000E945C02EACF1F920F920FB60F921124C5
:101580002F933F934F935F936F937F938F939F938B
:10159000AF93BF93EF93FF938CEC92E00E940B010B
:1015A000FF91EF91BF91AF919F918F917F916F913B
:1015B0005F914F913F912F910F900FBE0F901F9011
:1015C00018951F920F920FB60F9211242F938F939D
:1015D0009F93EF93FF93E091DC02F091DD02808115
:1015E000E091E202F091E30282FD1BC090818091C4
:1015F000E5028F5F8F732091E602821741F0E09140
:10160000E502F0E0E453FD4F958F8093E502FF91F2
:10161000EF919F918F912F910F900FBE0F901F9080
:1016200018958081F4CF1F920F920FB60F9211245C
:101630002F933F938F939F93AF93BF938091B0026B
:101640009091B102A091B202B091B3023091AB027D
:1016500023E0230F2D3758F50196A11DB11D2093CE
:10166000AB028093B0029093B102A093B202B09308
:10167000B3028091AC029091AD02A091AE02B09104
:10168000AF020196A11DB11D8093AC029093AD02F3
:10169000A093AE02B093AF02BF91AF919F918F9193
:1016A0003F912F910F900FBE0F901F90189526E835
:1016B000230F0296A11DB11DD2CF1F920F920FB61C
:1016C0000F9211242F933F934F935F936F937F93C8
:1016D0008F939F93AF93BF93CF93DF93EF93FF933A
:1016E0008091AA02C0918D03D0E087FF24C01092A0
:1016F0008500109284008091AA028F5F8093AA02D5
:101700008091AA02082E000C990B8C179D0724F4D7
:101710008091AA028C30C4F1809184009091850060
:10172000049680349C4908F47AC08091840090919A
:101730008500049676C08091AA02082E000C990BB1
:101740008C179D07C4F6E091AA028E2FEE0F990B1D
:10175000FC01EE0FFF1FE80FF91FE759FC4F8081D6
:1017600086FFC9CFE091AA028E2FEE0F990BFC01E4
:10177000EE0FFF1FE80FF91FE759FC4F808160E073
:101780008F730E94EC01B7CF2091840030918500C7
:10179000E091AA028E2FEE0F990BFC01EE0FFF1FB6
:1017A000E80FF91FE759FC4F81819281820F931F47
:1017B0009093890080938800E091AA028E2FEE0F0B
:1017C000990BFC01EE0FFF1FE80FF91FE759FC4FC3
:1017D000808186FF11C0E091AA028E2FEE0F990B37
:1017E000FC01EE0FFF1FE80FF91FE759FC4F808146
:1017F00061E08F730E94EC01FF91EF91DF91CF9137
:10180000BF91AF919F918F917F916F915F914F9118
:101810003F912F910F900FBE0F901F90189580E46D
:101820009CE990938900809388008FEF8093AA02AF
:10183000E3CF1092CF021092CE0288EE93E0A0E0A8
:10184000B0E08093D0029093D102A093D202B093E3
:10185000D30281E891E09093CD028093CC0285EC95
:1018600090E09093D9028093D80284EC90E090931A
:10187000DB028093DA0280EC90E09093DD028093AB
:10188000DC0281EC90E09093DF028093DE0282EC38
:1018900090E09093E1028093E00286EC90E09093D8
:1018A000E3028093E2021092E5021092E6021092A7
:1018B000E7021092E80280918D038C3098F491E059
:1018C000980F90938D0380938E0390E0FC01EE0FB0
:1018D000FF1FE80FF91FE759FC4F88EB9BE092834D
:1018E000818308958FEF80938E030895789484B553
:1018F000826084BD84B5816084BD85B5826085BD0C
:1019000085B5816085BD80916E00816080936E0099
:10191000109281008091810082608093810080918B
:10192000810081608093810080918000816080933C
:1019300080008091B10084608093B1008091B000FC
:1019400081608093B00080917A00846080937A00F7
:1019500080917A00826080937A0080917A00816021
:1019600080937A0080917A00806880937A00109248
:10197000C100E091DC02F091DD0282E08083E09121
:10198000D802F091D9021082E091DA02F091DB02E4
:101990008FEC80831092E402E091E002F091E1028A
:1019A00086E08083E091DE02F091DF028081806139
:1019B0008083E091DE02F091DF0280818860808385
:1019C000E091DE02F091DF02808180688083E09107
:1019D000DE02F091DF0280818F7D808382E192E0E0
:1019E0000E94740861E084E00E94880260E084E064
:1019F0000E94EC0161E08DE00E94880260E08DE0D1
:101A00000E94EC0161E08AE00E94880260E08AE0C6
:101A10000E94EC0162E08EE00E94880262E08FE0AA
:101A20000E94880262E080E10E94880262E083E115
:101A30000E94880262E082E10E94880262E081E105
:101A40000E94880261E087E00E94880260E087E0EF
:101A50000E94EC018FEF93E00E9426098F3F11F462
:101A60000E94E408C3E0D0E00E944206882389F087
:101A70008091BA02813069F48DE00E94C20668EE5E
:101A800073E080E090E00E943C05219769F70E9496
:101A9000E408C3E0D0E00E9442068823F1F0809180
:101AA000BA028230D1F48AE00E94C20668EE73E086
:101AB00080E090E00E943C05219769F78FEF93E06A
:101AC0000E9426098130B1F460E08FEF93E00E941C
:101AD000C70881E392E00E9474088FEF93E00E94B0
:101AE0002609813079F48FE392E00E9474080E9405
:101AF000D409FFCF61E08FEF93E00E94C7088FE326
:101B000092E0E9CF90E080E00E942609C82F81E3AF
:101B100092E00E9474088CE492E00E9423088C2FCB
:101B20000E9482088C2F0E94D20600E010E00E94E2
:101B30004206882309F4B6C08091BA02823009F4C3
:101B400022C158F48130C9F086E992E00E9423084E
:101B50008091BA020E948208A5C0833009F416C1A0
:101B6000863091F78091B4029091B502893C91053D
:101B70000CF498C00E94F70695C08091B80290912D
:101B8000B902893C91050CF48DC08DE00E94C2061B
:101B90000E9442068111FCCF90E080E00E9426095D
:101BA000D82F8BE592E00E9423088D2F0E94820897
:101BB0008FB7F8948090B0029090B102A090B202DA
:101BC000B090B3028FBFC0E061E08DE00E94EC01F5
:101BD0006AE070E080E090E00E943C0560E08DE00B
:101BE0000E94EC0164E670E080E090E00E943C0519
:101BF0002FB7F8946091B0027091B1028091B20257
:101C00009091B3022FBF681979098A099B0924E6CC
:101C100030E040E050E00E94A50F69017A018FEFAB
:101C2000C816D104E104F10429F024F0C12CD12C10
:101C30007601CA948CE692E00E9423088C2D0E94C3
:101C400082080E944206782E882309F4BDCF61E005
:101C50008DE00E94EC018091BA028430A9F584EDF8
:101C600091E00E9474082C2F41E06C2D8D2F0E9472
:101C7000C908CF5F0E94FB078091BA028250823070
:101C800058F08FB7F8948090B0029090B102A09075
:101C9000B202B090B3028FBF60E08DE00E94EC0111
:101CA000711092CF6AE070E080E090E00E943C0505
:101CB0000115110509F43BCF0E94F700882309F4B0
:101CC00036CF0E94000033CF853071F488ED91E06B
:101CD0000E9474082C2F42E06C2D8D2F0E94C908A1
:101CE000CF5F0E94D407C8CF863071F48BED91E0AE
:101CF0000E9474082C2F43E06C2D8D2F0E94C90880
:101D0000CF5F0E94F706B8CF873071F481EE91E083
:101D10000E9474082C2F44E06C2D8D2F0E94C9085E
:101D2000CF5F0E946F05A8CF883071F487EE91E0F5
:101D30000E9474082C2F45E06C2D8D2F0E94C9083D
:101D4000CF5F0E94D50598CF893071F48BEE91E07A
:101D50000E9474082C2F46E06C2D8D2F0E94C9081C
:101D6000CF5F0E94280988CF813009F085CF8AEFA4
:101D700091E00E9474082C2F43E66C2D8D2F0E9459
:101D8000C908712C79CF0E94D4098CCF8091B602FA
:101D90009091B702893C91050CF484CF88E792E0DA
:101DA0000E94740890E080E00E942609C1E0C80FFC
:101DB000C63009F4C1E08EE892E00E9423088C2F1F
:101DC0000E9482088C2F0E94D2066C2F90E080E047
:101DD0000E94C70867CF8F929F92AF92BF92CF9217
:101DE000DF92EF92FF92CF93DF93EC0168817981CC
:101DF0008A819B81611571058105910521F464E259
:101E000079ED8BE597E02DE133EF41E050E00E9462
:101E1000A50F49015A019B01AC01A7EAB1E40E9458
:101E2000C40F6B017C01ACEEB4EFA50194010E94DC
:101E3000D20FC60ED71EE81EF91EF7FE06C081E0BF
:101E4000C81AD108E10880E8F80AC882D982EA8273
:101E5000FB82C701B6019F77DF91CF91FF90EF9092
:101E6000DF90CF90BF90AF909F908F9008958F920A
:101E70009F92AF92BF92CF92DF92EF92FF926091CA
:101E8000010170910201809103019091040161159B
:101E900071058105910521F464E279ED8BE597E008
:101EA0002DE133EF41E050E00E94A50F49015A01B6
:101EB0009B01AC01A7EAB1E40E94C40F6B017C0155
:101EC000ACEEB4EFA50194010E94D20FC60ED71E4E
:101ED000E81EF91EF7FE06C081E0C81AD108E10825
:101EE00080E8F80AC0920101D0920201E092030159
:101EF000F0920401C701B6019F77FF90EF90DF9049
:101F0000CF90BF90AF909F908F9008956093010104
:101F10007093020180930301909304010895F9994D
:101F2000FECF92BD81BDF89A992780B50895262FDE
:101F3000F999FECF1FBA92BD81BD20BD0FB6F894AE
:101F4000FA9AF99A0FBE01960895052E97FB1EF492
:101F500000940E94BC0F57FD07D00E94D70F07FCCA
:101F600003D04EF40C94BC0F5095409530952195BC
:101F70003F4F4F4F5F4F08959095809570956195B5
:101F80007F4F8F4F9F4F08950E94F90FA59F900D8F
:101F9000B49F900DA49F800D911D11240895B7FF4B
:101FA0000C94C40F0E94C40F821B930B0895A1E2EE
:101FB0001A2EAA1BBB1BFD010DC0AA1FBB1FEE1FC3
:101FC000FF1FA217B307E407F50720F0A21BB30B0E
:101FD000E40BF50B661F771F881F991F1A9469F78A
:101FE00060957095809590959B01AC01BD01CF01E6
:101FF0000895A29FB001B39FC001A39F700D811DE2
:102000001124911DB29F700D811D1124911D089501
:102010000E940F106894B1110C949E1008950E94B4
:10202000831088F09F5798F0B92F9927B751B0F0D7
:10203000E1F0660F771F881F991F1AF0BA95C9F74C
:1020400014C0B13091F00E949D10B1E008950C943D
:102050009D10672F782F8827B85F39F0B93FCCF3F0
:10206000869577956795B395D9F73EF490958095C9
:10207000709561957F4F8F4F9F4F0895E89409C0E9
:1020800097FB3EF490958095709561957F4F8F4FAB
:102090009F4F9923A9F0F92F96E9BB279395F695C1
:1020A000879577956795B795F111F8CFFAF4BB0F3F
:1020B00011F460FF1BC06F5F7F4F8F4F9F4F16C0A3
:1020C000882311F096E911C0772321F09EE8872F2D
:1020D000762F05C0662371F096E8862F70E060E0E9
:1020E0002AF09A95660F771F881FDAF7880F969562
:1020F000879597F9089557FD9058440F551F59F04B
:102100005F3F71F04795880F97FB991F61F09F3FE4
:1021100079F087950895121613061406551FF2CF0D
:102120004695F1DF08C0161617061806991FF1CF5D
:1021300086957105610508940895E894BB27662784
:102140007727CB0197F908950E94B7100C942811B6
:102150000E941A1138F00E94211120F0952311F0ED
:102160000C9411110C94171111240C949E100E94C0
:102170007B1070F3959FC1F3950F50E0551F629F40
:10218000F001729FBB27F00DB11D639FAA27F00DD0
:10219000B11DAA1F649F6627B00DA11D661F829FF7
:1021A0002227B00DA11D621F739FB00DA11D621FDC
:1021B000839FA00D611D221F749F3327A00D611DF9
:1021C000231F849F600D211D822F762F6A2F1124DB
:1021D0009F5750409AF0F1F088234AF0EE0FFF1F0E
:1021E000BB1F661F771F881F91505040A9F79E3F65
:1021F000510580F00C9411110C949E105F3FE4F394
:10220000983ED4F3869577956795B795F795E795BA
:102210009F5FC1F7FE2B880F911D9695879597F9C3
:10222000089597F99F6780E870E060E008959FEF58
:1022300080EC089500240A9416161706180609065D
:10224000089500240A94121613061406050608952C
:10225000092E0394000C11F4882352F0BB0F40F4B4
:10226000BF2B11F460FF04C06F5F7F4F8F4F9F4FF4
:102270000895991B79E004C0991F961708F0961BE2
:10228000881F7A95C9F78095089597FB072E16F455
:10229000009407D077FD09D00E94591107FC05D0A2
:1022A0003EF4909581959F4F0895709561957F4F6D
:1022B0000895AA1BBB1B51E107C0AA1FBB1FA6178D
:1022C000B70710F0A61BB70B881F991F5A95A9F7DF
:1022D00080959095BC01CD010895EE0FFF1F0590EC
:1022E000F491E02D0994F894FFCFFF01000000065F
:1022F000010601260106015D014A010601060126CB
:1023000001060188015D01060106010B02B8015DAD
:10231000014A012601D201D201B8015D0188015DA7
:10232000010800080004000400040002000800087E
:102330000004000400040002000800080004000477
:102340000004000400040008000800040004000465
:10235000000200380133010201480243022B023718
:102360000101010F030063000000002D018D00BA80
:10237000007A01EB00C900DD000D0A0046616374BC
:102380006F7279205265736574212100506C6179F8
:10239000696E6720747261636B200073746172747C
:1023A0005F6D656D5F6C6F636174696F6E3A20007D
:1023B0006576656E745F64656C61793A2000594595
:1023C00053004E4F00534E414B45004C415547483A
:1023D00000435259004841505059204249525448F4
:1023E00044415900454E4400496E76616C69642051
:1023F0006576656E74207479706521004F70656E26
:10240000536E616B65204669726D77617265205607
:10241000657273696F6E20312E31004175746F7073
:102420006C6179206F66662E004175746F706C6107
:1024300079206F6E2E0043757272656E742074720F
:1024400061636B20005265636F7264696E6720740C
:102450007261636B20006576656E745F64656C61A4
:102460007900496E6372656D656E74696E6720747C
:102470007261636B2E2E2E00747261636B3A2000C2
:10248000496E76616C69642075736572496E70750A
:04249000743A20007A
:107E0000112484B714BE81FFF0D085E080938100F7
:107E100082E08093C00088E18093C10086E0809377
:107E2000C20080E18093C4008EE0C9D0259A86E02C
:107E300020E33CEF91E0309385002093840096BBD3
:107E4000B09BFECF1D9AA8958150A9F7CC24DD24C4
:107E500088248394B5E0AB2EA1E19A2EF3E0BF2EE7
:107E6000A2D0813461F49FD0082FAFD0023811F036
:107E7000013811F484E001C083E08DD089C08234E0
:107E800011F484E103C0853419F485E0A6D080C0E4
:107E9000853579F488D0E82EFF2485D0082F10E0AE
:107EA000102F00270E291F29000F111F8ED06801E7
:107EB0006FC0863521F484E090D080E0DECF843638
:107EC00009F040C070D06FD0082F6DD080E0C81688
:107ED00080E7D80618F4F601B7BEE895C0E0D1E017
:107EE00062D089930C17E1F7F0E0CF16F0E7DF06D8
:107EF00018F0F601B7BEE89568D007B600FCFDCFD4
:107F0000A601A0E0B1E02C9130E011968C91119780
:107F100090E0982F8827822B932B1296FA010C0160
:107F200087BEE89511244E5F5F4FF1E0A038BF0790
:107F300051F7F601A7BEE89507B600FCFDCF97BE46
:107F4000E89526C08437B1F42ED02DD0F82E2BD052
:107F50003CD0F601EF2C8F010F5F1F4F84911BD097
:107F6000EA94F801C1F70894C11CD11CFA94CF0C13
:107F7000D11C0EC0853739F428D08EE10CD085E9AC
:107F80000AD08FE07ACF813511F488E018D01DD067
:107F900080E101D065CF982F8091C00085FFFCCF94
:107FA0009093C60008958091C00087FFFCCF809118
:107FB000C00084FD01C0A8958091C6000895E0E648
:107FC000F0E098E1908380830895EDDF803219F02E
:107FD00088E0F5DFFFCF84E1DECF1F93182FE3DFCA
:107FE0001150E9F7F2DF1F91089580E0E8DFEE27F6
:047FF000FF270994CA
:027FFE00040479
:00000001FF
